:020000041000EA
:10000000002008205B0100101B0100101D010010E2
:100010001101001011010010110100101101001058
:100020001901001019010010190100101F01001022
:10003000110100101901001021010010230100100E
:100040001101001011010010110100101101001028
:100050001101001011010010110100101101001018
:100060001101001011010010110100101101001008
:1000700011010010110100101101001011010010F8
:1000800011010010110100101101001011010010E8
:1000900011010010110100101101001011010010D8
:1000A00011010010110100101101001011010010C8
:1000B00011010010110100101101001011010010B8
:1000C00011010010110100101101001011010010A8
:1000D0001101001011010010110100101101001098
:1000E0001101001011010010110100101101001088
:1000F0001101001011010010110100101101001078
:100100001101001011010010110100101101001067
:10011000EFF30580103800BE00BE00BE00BE00BE7A
:1001200000BE00BEF2EB8871C0D30410E0D304100F
:100130009C01001090A31AE7D3DEFFFF42012110BB
:10014000FF01000048020500793512AB00201E496E
:10015000086006C881F3088810474FF050400068D7
:1001600008B10020F3E70DA40ECC002902D000F066
:1001700012F8F9E71549164A002000E001C1914242
:10018000FCD114498847144988471449884700BE60
:10019000FDE701C901C29A42FBD37047E0D30410C6
:1001A00010010020B030002080030510000008205E
:1001B000000008208003051000100820001008200F
:1001C000000000007047000008ED00E0B0300020A3
:1001D0008053002041710010F939001005710010A2
:1001E0000022026042608260C2600261704700BF0C
:1001F000DFEDB56A91ED016A2DE9F84F2DED0A8B1F
:10020000C6EE269AF5EEC09AD1ED057AB2EE0E9AB8
:10021000B3EE0E7AF1EE10FA0D46064617461C466E
:1002200027EEC99A67EEC7BA00F1CA81F7EE007AE5
:10023000F4EE679AF1EE10FA77FEA99A206A97ED2C
:1002400000BA03681B68984794F8483082463BEE32
:10025000499A8B4673B1206A03681B689847236CE0
:10026000626CC01A61EB020C616988427CF100018A
:10027000C0F03081DFED95AAB0EE6A8A206A03688B
:100280001B68984794F8483084ED0CBA84ED0D9AB9
:10029000C4ED0EAA84ED0F8AC4E90AAB2064616440
:1002A00013B9012384F84830D4ED017A94ED006A43
:1002B00028EE278AB7EE007AD5ED024A9FED825AE2
:1002C000D4ED026A77EE697A84EE85BAA9EE068AE1
:1002D00067EEAB7AAAEEA68AB5EEC0BA95ED06AA8D
:1002E000F2EE0E8AF3EE0E5AE8EE697AF1EE10FAAB
:1002F0006AEE288AF0EE67AA2AEE25AA00F15D814F
:10030000B4EE47BAF1EE10FA37FE0BBA206FD7ED14
:10031000019A03681B68984794F89830074679EE6D
:10032000E88A8A467BB1206F03681B689847D4F837
:100330009030D4F89420C01A61EB020C616E8842B0
:100340007CF1000147D39FED619AB0EE498A206F9E
:1003500003681B68984794F89830C4ED209AC4ED60
:10036000218A84ED229A84ED238AC4E91E7AC4F896
:10037000900053B3C4F8941094ED155A94ED146A98
:10038000F7EE007A28EE058A77EECB7AA8EE868A19
:10039000D4ED166A67EE8A7AA9EE268A95ED057A7B
:1003A000F3EE0E5AE8EE4B7A27EE657A2A69EB688F
:1003B000C6ED02AABDEC0A8B304686ED047AC6ED86
:1003C000037A32607360BDE8F88F0123C4F894109B
:1003D00084F89830D0E7B7EB03086AEB020940468F
:1003E000494604F088FF36A3D3E9002304F01CFE3D
:1003F00004F068FED4E91A2394ED217AB6EE006A7F
:1004000038EE877A94ED178A0BEE900AD4ED237AB2
:1004100027EE067AF1EE486AEBEE877AF4EE667A1A
:10042000F1EE10FA48BFF0EE667AB4EEE78AF1EE2C
:1004300010FA58BFB0EE678A904579EB030394ED4C
:10044000229A84D3D4ED207A79EEE77A17EE900AD7
:1004500044F00AFA94ED18CA80461CEE100A894648
:1004600044F002FA02460B460020194904F0A4FDAC
:1004700002460B464046494604F0B2FD80461BEE5C
:10048000900A894644F0F0F902460B464046494638
:1004900004F0CAFD6CEE097A804617EE900A894690
:1004A00044F0E2F902460B464046494604F070FD2E
:1004B00004F008FE09EE100A49E700BFAFF3008020
:1004C0000000000080842E410000C84200000000AF
:1004D0000000F03FBAEB03086BEB020940464946C7
:1004E00004F009FF3AA3D3E9002304F09DFD04F0D2
:1004F000E9FDD4E9062394ED0D7AB6EE006A39EEF3
:10050000077A94ED038A08EE900AD4ED0F7A27EE6D
:10051000067AF1EE486AE8EE877AF4EE667AF1EE52
:1005200010FA48BFF0EE667AB4EEE78AF1EE10FA00
:1005300058BFB0EE678A904579EB0303D4ED0EAA5D
:10054000FFF49CAED4ED0C7A7BEE677A17EE900A3E
:1005500044F08AF994ED04AA80461AEE100A8946FE
:1005600044F082F902460B460020174904F024FDAE
:1005700002460B464046494604F032FD804618EEDE
:10058000900A894644F070F902460B4640464946B7
:1005900004F04AFD6AEE2A7A804617EE900A8946F0
:1005A00044F062F902460B464046494604F0F0FC2E
:1005B00004F088FD0AEE900A60E69FED04BAA5E615
:1005C000DFED029A3AE600BF0000F03F00000000B5
:1005D0000000000080842E4100232DE9F047C64F23
:1005E0002DED068B054607604360106A14460368CC
:1005F0000E461B68D1ED008A984794F848300746AC
:100600008A4673B1206A03681B689847236C626C42
:10061000C01A61EB020C616988427CF10001C0F0F4
:10062000F2809FEDB69AB0EE498A206A03681B6893
:10063000984794F84830C4ED0C8AC4ED0D8A84EDD7
:100640000E9A84ED0F8AC4E90A7A2064002B5DD0EB
:100650006164D4ED016A94ED007A28EE268AD4ED27
:10066000027AA8EE878AA9EE278AB1EE488A206F1F
:1006700085ED028A0368D6ED019A1B689847F1EE72
:10068000048A94F89830064679EEE88A0F467BB1E2
:10069000206F03681B689847D4F89030D4F89420F2
:1006A000C01A61EB020C616E88427CF1000138D304
:1006B0009FED929AB0EE498A206F03681B689847B5
:1006C00094F89830C4ED209AC4ED218A84ED229AE2
:1006D00084ED238AA667E767EBB1C4E92401D4ED72
:1006E000156A94ED147A28EE268AD4ED167AA8EECF
:1006F000878AA9EE278A0023B1EE488A284685ED2D
:10070000038ABDEC068B2B61BDE8F0870123616491
:1007100084F848309DE70123C4E9240184F8983027
:10072000DDE7B6EB030867EB02094046494604F0F3
:10073000E2FD6FA3D3E9002304F076FC04F0C2FCD1
:10074000D4E91A2394ED217AB6EE006A38EE877A5E
:1007500094ED178A0AEE100AD4ED237A27EE067A72
:10076000F1EE486AEAEE077AF4EE667AF1EE10FAF4
:1007700048BFF0EE667AB4EEE78AF1EE10FA58BFA1
:10078000B0EE678A904579EB030394ED229A93D3F8
:10079000D4ED207A79EEE77A17EE900A44F064F807
:1007A000D4ED18AA80461AEE900A894644F05CF807
:1007B00002460B460020524904F0FEFB02460B465F
:1007C0004046494604F00CFC80461AEE100A894661
:1007D00044F04AF802460B464046494604F024FCE1
:1007E0006AEE897A804617EE900A894644F03CF812
:1007F00002460B464046494604F0CAFB04F062FC40
:1008000009EE100A58E7B7EB03086AEB0209404605
:10081000494604F070FD36A3D3E9002304F004FC3C
:1008200004F050FCD4E9062394ED0D7AB6EE006A8C
:1008300038EE877A94ED038A09EE900AD4ED0F7AA8
:1008400027EE067AF1EE486AE9EE877AF4EE667AE8
:10085000F1EE10FA48BFF0EE667AB4EEE78AF1EEF8
:1008600010FA58BFB0EE678A904579EB030394ED18
:100870000E9AFFF4DAAED4ED0C7A78EEE77A17EE42
:10088000900A43F0F1FF94ED04AA80461AEE100A94
:10089000894643F0E9FF02460B460020184904F060
:1008A0008BFB02460B464046494604F099FB8046C6
:1008B00019EE900A894643F0D7FF02460B464046A0
:1008C000494604F0B1FB6AEE097A804617EE900AB9
:1008D000894643F0C9FF02460B464046494604F0AC
:1008E00057FB04F0EFFB09EE100A9EE6AFF3008021
:1008F0000000000080842E410000F0410000000054
:100900000000F03F00000000B0EE087AD2ED007A5F
:10091000F4EEC77AF1EE10FA2DE9F04705462DED19
:10092000068B0E461C4640F3A28077EEC77AB3EEE4
:100930000E7AF3EE016A67EE877A87EEA67A0022D6
:10094000206A85ED007A03686A601B68D6ED008A2C
:10095000984794F8483007468A4673B1206A03687E
:100960001B689847236C626CC01A61EB020C6169CA
:1009700088427CF10001C0F0F5809FEDB79AB0EE9F
:10098000498A206A03681B68984794F84830C4ED88
:100990000C8AC4ED0D8A84ED0E9A84ED0F8AC4E9A9
:1009A0000A7A2064002B5DD06164D4ED016A94ED75
:1009B000007A28EE268AD4ED027AA8EE878AA9EE7C
:1009C000278AB1EE488A206F85ED028A0368D6ED4A
:1009D000019A1B689847F1EE048A94F8983006460D
:1009E00079EEE88A0F467BB1206F03681B68984751
:1009F000D4F89030D4F89420C01A61EB020C616EE8
:100A000088427CF100013BD39FED939AB0EE498A76
:100A1000206F03681B68984794F89830C4ED209ABB
:100A2000C4ED218A84ED229A84ED238AA667E767C4
:100A300003B3C4E92401D4ED156A94ED147A28EEC9
:100A4000268AD4ED167AA8EE878AA9EE278A002393
:100A5000B1EE488A284685ED038ABDEC068B2B61F2
:100A6000BDE8F0870123616484F848309DE79FED7D
:100A70007A7A64E70123C4E9240184F89830DAE73C
:100A8000B6EB030867EB02094046494604F033FC25
:100A90006FA3D3E9002304F0C7FA04F013FBD4E9F1
:100AA0001A2394ED217AB6EE006A38EE877A94ED37
:100AB000178A0AEE100AD4ED237A27EE067AF1EEB1
:100AC000486AEAEE077AF4EE667AF1EE10FA48BF69
:100AD000F0EE667AB4EEE78AF1EE10FA58BFB0EEA7
:100AE000678A904579EB030394ED229A90D3D4ED75
:100AF000207A79EEE77A17EE900A43F0B5FED4ED4E
:100B000018AA80461AEE900A894643F0ADFE0246C6
:100B10000B460020514904F04FFA02460B4640466E
:100B2000494604F05DFA80461AEE100A894643F001
:100B30009BFE02460B464046494604F075FA6AEEB3
:100B4000897A804617EE900A894643F08DFE024668
:100B50000B464046494604F01BFA04F0B3FA09EE8E
:100B6000100A55E7B7EB03086AEB0209404649460D
:100B700004F0C1FB36A3D3E9002304F055FA04F0D6
:100B8000A1FAD4E9062394ED0D7AB6EE006A38EEA8
:100B9000877A94ED038A09EE900AD4ED0F7A27EE56
:100BA000067AF1EE486AE9EE877AF4EE667AF1EEBB
:100BB00010FA48BFF0EE667AB4EEE78AF1EE10FA6A
:100BC00058BFB0EE678A904579EB030394ED0E9A17
:100BD000FFF4D7AED4ED0C7A78EEE77A17EE900AF0
:100BE00043F042FE94ED04AA80461AEE100A8946AC
:100BF00043F03AFE02460B460020184904F0DCF9A7
:100C000002460B464046494604F0EAF9804619EE92
:100C1000900A894643F028FE02460B464046494664
:100C200004F002FA6AEE097A804617EE900A8946C5
:100C300043F01AFE02460B464046494604F0A8F926
:100C400004F040FA09EE100A9BE600BFAFF3008003
:100C50000000000080842E41000000000000F03FF2
:100C60002DE9F0470546D3F8C0001C4603682DED7A
:100C7000088B1B68D2ED009A0E46DFEDB38A9847C9
:100C800094F8E830074679EEE88A8A4693B1D4F8BA
:100C9000C00003681B689847D4F8E030D4F8E4201B
:100CA000C01A61EB020CD4F8B41088427CF1000148
:100CB000C0F052819FEDA59AB0EE498AD4F8C000E9
:100CC00003681B68984794F8E830C4ED349AC4ED83
:100CD000358A84ED369A84ED378AC4E9327AC4F8CD
:100CE000E000002B00F02581C4F8E41094ED296A9F
:100CF000D4ED286A28EE068A94ED2A7AA8EEA68A10
:100D0000F1EE047AA9EE078AB4EEE78AF1EE10FA62
:100D100000F3AA81B9EE047AB4EEC78AF1EE10FAB4
:100D200040F1A581B0EE67AA0022206A88490368D5
:100D300029601B686A60D6ED009AF2EE048A984733
:100D400094F84830074679EEE88A8A46002B00F08E
:100D50007B81206A03681B689847236C626CC01A09
:100D600061EB020C616988427CF1000180F06C81CA
:100D7000B7EB03086AEB02094046494604F0BBFAA8
:100D80006FA3D3E9002304F04FF904F09BF9D4E9F1
:100D9000062394ED0D7AB6EE006A38EE877A94ED6C
:100DA000038A0AEE900AD4ED0F7A27EE067AF1EE66
:100DB000486AEAEE877AF4EE667AF1EE10FA48BFF6
:100DC000F0EE667AB4EEE78AF1EE10FA58BFB0EEB4
:100DD000678A904579EB030394ED0E9A80F04A817F
:100DE000206A03681B68984794F84830C4ED0C9A51
:100DF000C4ED0D8A84ED0E9A84ED0F8AC4E90A7A57
:100E00002064002B00F025816164D4ED016A94ED2B
:100E1000007A28EE268AD4ED027AA8EE878AA9EE17
:100E2000278AB1EE488A206F85ED028A0368D6EDE5
:100E3000019A1B68984794F89830064639EECAAA7A
:100E40000F46002B00F0FB80206F03681B6898475B
:100E5000D4F89030D4F89420C01A61EB020C616E83
:100E600088427CF1000180F0EA80B6EB030867EB72
:100E700002094046494604F03EFA31A3D3E9002373
:100E800004F0D2F804F01EF9D4E91A2394ED217A83
:100E9000B6EE006A3AEE077A94ED178A09EE100A68
:100EA000D4ED237A27EE067AF1EE486AE9EE077A66
:100EB000F4EE667AF1EE10FA48BFF0EE667AB4EE20
:100EC000E78AF1EE10FA58BFB0EE678A904579EBE9
:100ED0000303D4ED228A80F00881206F03681B6829
:100EE000984794F89830C4ED209A84ED21AAC4ED77
:100EF000228A84ED238AA667E767002B00F0AE8084
:100F0000C4E92401D4ED156A94ED147A28EE268AFA
:100F1000D4ED167AAAEE078AA8EEA78AB1EE488A1F
:100F20000C4B284685ED038ABDEC088B2B61BDE890
:100F3000F0870123C4F8E41084F8E830D6E600BF57
:100F40000000000080842E410000484200000000A4
:100F50000000F04100002041B7EB03086AEB0209F2
:100F60004046494604F0C7F97FA3D3E9002304F0C3
:100F70005BF804F0A7F8D4E92E2394ED357AB6EEA9
:100F8000006A38EE877A94ED2B8A0AEE100AD4EDC7
:100F9000377A27EE067AF1EE486AEAEE077AF4EE3F
:100FA000667AF1EE10FA48BFF0EE667AB4EEE78AA0
:100FB000F1EE10FA58BFB0EE678A904579EB030363
:100FC00094ED369AFFF47AAED4ED347A79EEE77A7E
:100FD00017EE900A43F048FCD4ED2CAA80461AEE96
:100FE000900A894643F040FC02460B4600205C49CB
:100FF00003F0E2FF02460B464046494603F0F0FF8D
:1010000080461AEE100A894643F02EFC02460B4633
:101010004046494604F008F86AEE897A804617EEA1
:10102000900A894643F020FC02460B46404649465A
:1010300003F0AEFF04F046F809EE100A3EE6DFEDDD
:10104000498AB0EE688A48E79FED469AB0EE498A31
:10105000C6E60123616484F84830D6E60123C4E97A
:10106000240184F898304DE7B9EE04AA5CE6B1EEAD
:1010700048AA59E6D4ED0C7A79EEE77A17EE900A91
:1010800043F0F2FB94ED04BA80461BEE100A894649
:1010900043F0EAFB02460B460020314903F08CFF87
:1010A00002460B464046494603F09AFF80461AEE38
:1010B000900A894643F0D8FB02460B464046494613
:1010C00003F0B2FF6BEE097A804617EE900A89466C
:1010D00043F0CAFB02460B464046494603F058FF20
:1010E00003F0F0FF09EE100A7AE6D4ED207A79EEEB
:1010F000E77A17EE900A43F0B7FBD4ED18AA8046C2
:101100001AEE900A894643F0AFFB02460B460020D8
:10111000134903F051FF02460B464046494603F08F
:101120005FFF804619EE100A894643F09DFB024698
:101130000B464046494603F077FF6AEEA87A8046A0
:1011400017EE900A894643F08FFB02460B46404655
:10115000494603F01DFF03F0B5FF08EE900ABCE618
:101160000000F03F000000000000000080842E41DD
:101170000022DFF818C00449C0F800C04260826055
:10118000C1600261704700BF0000A0400000F04154
:101190000022DFF818C00449C0F800C04260826035
:1011A000C1600261704700BF0000A0400000F04134
:1011B000B0EE087AD1ED007AF4EEC77AF1EE10FACB
:1011C00013DD77EEC77AB3EE0E7AF3EE016A67EEBF
:1011D000877A87EEA67A00230549064A80ED007AD1
:1011E00083604160C260036170479FED037AF2E75C
:1011F0000000A0410000A04000000000F3EE0E6AD5
:10120000D1ED057A91ED067A67EEE67A27EE267A39
:10121000D1F810C0CA68C0ED027A80ED037AC0ED43
:10122000047AC0F800C04260704700BF07EE901A11
:10123000F5EEC07AF1EE10FA3BD49FED1F7AF4EE92
:10124000477AF1EE10FA77FE277A0269436906EED3
:10125000902A9B1A07EE103AB8EE477A9FED166A6D
:1012600027EE277AF8EE666AC7EE067A77EEA67A58
:10127000FCEEE77A007917EE903A42081F288ABF01
:1012800002F0030202F0070208320C4902EB82026C
:1012900092001144C20758BF4FF6FF700A689BB214
:1012A00044BF07481B04534001F5805103400B60C5
:1012B0007047DFED047AC8E70000C8420C800A409E
:1012C0000000FFFF00000000012070470020704771
:1012D00000207047012070474FF0504201230179F0
:1012E00052688B40134214BF01200020704700BF9A
:1012F000037941EC4030704703F05EBB2DE9F043C9
:1013000085B091461E460D46476890F80A800469EC
:1013100003F052FB4FF47A734FF0FF3C6FF0004242
:10132000E4FB0301844572EB01033CBF60461146B8
:101330000024CDE902014B462A4641463846009436
:1013400008F098FB031EAABF01202046336005B0B9
:10135000BDE8F0832DE9F04385B091461E460D4669
:10136000476890F80A80046903F026FB4FF47A730B
:101370004FF0FF3C6FF00042E4FB0301844572EB49
:1013800001033CBF604611460024CDE902014B46F3
:101390002A4641463846009408F08AFB031EAABF3D
:1013A00001202046336005B0BDE8F08370B50446E7
:1013B0008C460546304B012644F8043BBCE80F0040
:1013C0000FC4DCF8003004212360287902F0C8FB48
:1013D0002C7905201F2C8ABFC4F34104C4F34204B6
:1013E000083403F08DFBD5ED037A07EE100AF8EE12
:1013F000675AB8EE477A17EE901A9FED206AC7EE4B
:10140000257AF3EE006A77EE867A67EEA67AAA6806
:101410000020B1FBF2F204EB84039B0003F1804156
:1014200001F528210B46FCEEE77A013A92B20860FA
:101430008860C8600A612C79C1ED017A1F2C8ABFCF
:10144000C4F34103C4F3420308330D4A03EB83039F
:1014500028699B001A44E3070E6081B258BF4FF61B
:10146000FF70136844BF074809044B40034002F56E
:1014700080522846136070BD085A04100000003DD9
:101480000C800A400000FFFF2DE9F0412DED028B9A
:1014900091F840300C46054698B0002B40F016817C
:1014A0008DF8583094F87830002B40F0B6806E46B6
:1014B0008DF8103094F8B030002B00F04881D4F84B
:1014C0009800C94A03681B68934240F08B8103F07F
:1014D00073FA4FF47A770022D4F8883007FB03F3CD
:1014E000D4F8A870C01BD4F8AC7061EB070183423C
:1014F0008A41C0F02C810DF1180CE64604F1A007DA
:101500000FCFAEE80F0097E803008EE8030094F8D1
:10151000B080B6468DF82880BCE80F00AEE80F001A
:101520009CE8030094F8E8308EE80300002B00F0FC
:10153000AB80D4F8D000AC4A03681B68934240F0FB
:10154000408103F039FA4FF47A724FF0000CD4F86E
:10155000C03002FB03F3D4F8E020801AD4F8E42072
:1015600061EB020183427CEB010180F0E38094F89F
:1015700020318DF828C0002B00F08D80D4F80801B0
:10158000994A03681B68934240F01D8103F014FAE6
:101590004FF47A7C0022D4F8F830D4F818710CFBA0
:1015A00003F3C01BD4F81C7161EB070183428A412D
:1015B00071D39DF8583094ED448A94F82021002B83
:1015C0006ED184F8213294F82032002B00F09880FC
:1015D0009DF810309DF82810002B00F0BD800029E8
:1015E00000F0DF80F3EE047A9DED067AB4EEE77A40
:1015F000F1EE10FA40F3E980002A00F0D280B4EE58
:10160000E78AF1EE10FA40F3CC803146284604F523
:10161000987306AAFFF724FB75E0206E724A0368F0
:101620001B68934240F0C98003F0C6F94FF47A7208
:10163000236F666FC01A236D61EB060102FB03F393
:101640000022834272EB010108D294F8B0306E465A
:101650008DF81020002B7FF432AF78E06E46B44650
:1016600004F1680EBEE80F00ACE80F009EE803002E
:101670008CE803009DF81030002B3FF41BAF94F86A
:10168000E830002B7FF455AF8DF8283094F82031E6
:10169000002B7FF473AF9DF858300022002B90D0C0
:1016A00000229DF8303084F8212284F820323BB3A8
:1016B0009DF81030002B63D128460CA9FFF79EFD42
:1016C000284618B0BDEC028BBDE8F0810869464A97
:1016D00003681B68934272D103F06EF94FF47A727B
:1016E000A36BE66BC01A236861EB060102FB03F3F0
:1016F0000022834272EB01010BD28DF85820D1E613
:101700002846FEF76DFD284618B0BDEC028BBDE8FB
:10171000F0810DF1300C04F1180EBEE80F00ACE8BA
:101720000F00BEE80F00ACE80F009EE80F008CE849
:101730000F00B7E60DF1180C04F1D80EBEE80F004B
:10174000ACE80F009EE803008CE803009EE74FF032
:1017500000080DF1180CDCE6D1B1F3EE047A9DED32
:10176000067AB4EEE77AF1EE10FA36DD82B1B4EE25
:10177000E78AF1EE10FA0BDD2846FFF709FDC2E714
:101780003246284604F598730CA9FEF731FDBAE7F6
:101790002846FFF7EDFC284618B0BDEC028BBDE8EB
:1017A000F0812846314604F59872FEF715FF284669
:1017B00018B0BDEC028BBDE8F081984736E798473A
:1017C0008CE79847BFE69847E2E63146284604F59D
:1017D000987306AAFFF798F895E7284606A9FFF739
:1017E000E7FC90E7984774E6F91200102DE9F84FEE
:1017F0001646D0F8D02242B38146884604460025DA
:101800004FF0010BDFF84CA004E00135954204F1E4
:1018100018041AD2D8F804302168D8F80000676894
:101820009F4208BF8142F0D1336884F808B01B683A
:1018300053450CD103F0C0F8D9F8D02201359542B8
:10184000C4E9040104F11804E4D3BDE8F88F30467C
:101850009847F1E7F912001084B02DE9F04F93B0EA
:101860001DACA14680460546002784E80E001F9B5C
:1018700000F5CC5E0E460392029300F5A764B9E82A
:101880000F00A8E80F00B9E80F00A8E80F0099E8DA
:1018900007000EF1080E88E80700C5F8307444F818
:1018A000047C04F582747445F9D100214FF00008DE
:1018B0004FF0000905F5805005F5CD5305F5E452CC
:1018C000C0F88478C0F89C791833083243E902895B
:1018D00003F8101C18339342F8D100224FF000088F
:1018E0004FF0000905F5E453C0F8701C103305F5FE
:1018F000FB5143E9028903F8102C18338B42F8D1CD
:10190000C0F8482F4FF0000800224FF0000905F5FD
:10191000FB5305F508510833383143E9028903F8D0
:10192000102C18339942F8D1002100F5805005F5AC
:101930000058C0F8202205F51853C8F8282605F5E8
:1019400069522C333C32C3F8001103F582739A427A
:10195000F9D105F5405CCCF87C1ACCF8941B002238
:101960000020002105F56E53303305F57A5443E924
:10197000020103F8102C1833A342F8D100214FF0D4
:10198000000A4FF0000BCCF8682E05F57A5305F5E8
:1019900082420833583243E902AB03F8101C183373
:1019A0009342F8D1336805F580441B68C4F84011B0
:1019B00000218148814AC4E9560101200021934257
:1019C000C4E95801C4F8506140F0E68002F0F4FF29
:1019D000039BC4E95A01C4F87061C8F828322B4649
:1019E0004FF00009DFED767A0298764A43F8300F1F
:1019F00003F5075304F5BC7B383304F53E71C4E9A5
:101A0000523300910FCA8BE80F006F4A04F5E47B54
:101A10000FCAC4ED707AC4F8886184F8B8918BE875
:101A20000F006A4A04F5527E04F5747705F5844B7D
:101A3000CDF804E00597C4ED7E7AC4F8D86184F847
:101A4000F0910FCA8BE80F00614A04F50E7B0FCAB4
:101A5000C4ED8C7AC4F8106284F828925D4F8BE84C
:101A60000F005D4A04F52A7A04F51C7B0FCAC4ED09
:101A70009A7AC4F8486284F860928BE80F00C4ED4B
:101A8000A87AC4F8806284F898920FCFAAE80F0071
:101A900097E80F00514F8AE80F000FCF0497009F7F
:101AA0000DF11C0EF0469FED426BC4F8C86284F83D
:101AB000F0920FC70097049F0DF1740C97E80F0088
:101AC000009F87E80F00464FC4F818630FCF0097B8
:101AD000019F84F840930FC70197009F97E80F007C
:101AE000019F87E80F00C4F8686384F89093BCE80E
:101AF0000F00AEE80F00BCE80F00AEE80F00029840
:101B0000039B099084EDEA6B9CE8070084EDEC6B85
:101B10008EE80700A4F898930893C4F8A09307965A
:101B2000B8E80F00059F0FC7B8E80F000FC79EE881
:101B30000700336887E807001B68204A934234D1C6
:101B400002F03AFFC4E9EA01D4F8F403254A036835
:101B50001B68934226D103794FF0000242EC4030DB
:101B600044F62060002105F58847C4F80064C7E901
:101B70000201012000213368104A1B68C7E90401F3
:101B800093420CD102F018FFC7E90601284613B0B2
:101B9000BDE8F04F04B070473046984718E730462C
:101BA0009847F1E700219847DAE730469847C9E7B8
:101BB0000000000000000000A0860100F9120010E3
:101BC000000000001028002000280020F02700203E
:101BD000E0270020585A0410D0270020585A04103B
:101BE000585A0410F11200102DE9F04F0C46ADF6D2
:101BF000141D4FF47B7200210194039042F058FEB3
:101C000004F58043D3F8200102930368BF4A1B68A0
:101C1000934240F0B38202F0CFFE029CD4F8282118
:101C2000D4F83431D4F83CE102FB03F6D4E94B3765
:101C300003FB0766A7FB027C6644D4F838C117EBA8
:101C40000C0746EB0E06B84271EB0606C0F0E180C9
:101C5000B0EB0C0061EB0E0142F02EFE0130C4F837
:101C60003001D4F84001A94A036841F100011B6822
:101C7000C4F83411934240F0BD8302F09DFE8046CB
:101C80000F46019B03F58056D6F8403C1D2B00F211
:101C90007F83591C029A03EB4303D2F840014FF0B3
:101CA000000C06F5176202EBC302C2E900874FF091
:101CB00000094FF0000806EBC30383F878C90368F6
:101CC0001B68C2E90489914AC6F8401C934240F05F
:101CD000958302F071FE80460F46D6F8183F1D2B03
:101CE00000F27283591C029A03EB4303D2F84001BD
:101CF0004FF0000C06F5456202EBC30242E9028791
:101D00004FF000094FF0000806EBC30383F850CCF6
:101D100003681B68C2E902897C4AC6F8181F93420F
:101D200040F0608302F048FE8146884606F5805305
:101D3000D3F8F0311D2B00F2398301995A1C01F5BB
:101D4000F957002103EB430307EBC307C7E90098EA
:101D50004FF000084FF0000906EBC30383F8281F7B
:101D6000029B06F58056D3F8400103681B68C7E95B
:101D70000489C6F8F021654A934240F0438302F09B
:101D80001BFE07460E46019B03F5405BDBF8383E21
:101D90001D2B00F2E282591C029A03EB4303D2F896
:101DA00040014FF0000C0BF5376202EBC30242E931
:101DB0000276002600270BEBC30383F870CB036881
:101DC0001B68C2E90267514ACBF8381E934240F0C3
:101DD0000D8302F0F1FD80460F46029BD3F81031CF
:101DE0001D2B00F2C88201995A1C01F57956002179
:101DF00003EB430306EBC3060BEBC303C6E9008703
:101E0000002083F8481E0021029BC6E90401C3F8A4
:101E10001021019E06F5805707F66C0818E030681F
:101E200006F5C354D0F800C00C342B462146DCF82C
:101E30000890C847D8B12D68D7F86C292046521BA6
:101E4000611942F04DFDD7F86C395B1BC7F86C394E
:101E500030680DF5A46503685B68984738B1D7F81A
:101E60006C29002ADBD1D7F85448002C74D1019F8B
:101E700007F5175A07F500560AF13C0A07F54058CE
:101E800019E0D6F8F80107F56954D0F800C02434F9
:101E90002B462146DCF80890C847D8B12D68D8F801
:101EA000642B2046521B611942F01AFDD8F8643B9E
:101EB0005B1BC8F8643BD6F8F8010DF5A465036810
:101EC0005B68984730B1D8F8642B002AD9D1D8F88C
:101ED0004C4AECB90023D6F8F8014C930368FF2272
:101EE0001F680CA90BABB847002859D1019B0CA95E
:101EF00018680BAB02681768FF22B847002840F04B
:101F00003F8103980DF6141DBDE8F08FF912001003
:101F10004FF4827206F2FC51013C4DA842F0B0FC35
:101F200004EB8412920007F51C510DF5A465504690
:101F3000C8F84C4A42F0D4FC4FF482724DA92846AE
:101F400042F09EFC4FF48272294608F6642042F06B
:101F500097FCD8F8642B94E706F2044529464FF421
:101F60008272013C4DA842F08BFC04EB841228469F
:101F7000920006F5A1610DF5A465C7F8544842F03A
:101F8000AFFC4FF482724DA9284642F079FC4FF421
:101F900082722946404642F073FCD7F86C293EE72E
:101FA000D6F8F8050B9AC0F57F739A429ED8019C2B
:101FB0000CA904F5075B0BF13C0B584442F060FCA4
:101FC000D6F8F825022A91D0101900F507505B4683
:101FD0003A3001E0834289D019781F46442903F141
:101FE0000103F7D119785029F4D1019B5846FF1A03
:101FF000A7F507573C3FD21B0BEB070142F070FCE3
:102000000023994698461846D6F8F825CDF80439A5
:10201000A2EB070ACDF80839CDF80C39C6F8F8A5B7
:102020000DF5A46708F106029245FFF45FAF06EBD9
:10203000080191F8FC2108F10204442A049440F0BC
:10204000DD8491F8FD21502A40F0D884321992F8AD
:10205000FC2191F800C291F8FF410CF00F0E02F044
:102060000F011209B9F1000F40F0B6844FF48B73E1
:10207000CB40DB0787F8E8E37A70397040F1BE8423
:10208000B9EB1C1F40F0038404EB08039A45FFF4EE
:102090002DAF08F105010DF22455E21F59442844E3
:1020A00042F0EEFBD7F8E433D7F8EC83073B18197E
:1020B00004EB0803334493F8FAC193F8FB41C7F8E3
:1020C000E4034FF6FF73002800F0CB83011D41F2BB
:1020D0002102394442E05B001FFA83FE1BB2002B51
:1020E000C0F2B9834FEA4E0E1FFA8EF30FFA8EFE3E
:1020F000BEF1000FC0F2A8835B001FFA83FE1BB283
:10210000002BC0F29B834FEA4E0E1FFA8EF30FFA9C
:102110008EFEBEF1000FC0F28A835B001FFA83FEC1
:102120001BB2002BC0F27D834FEA4E0E1FFA8EF3D6
:102130000FFA8EFEBEF1000FC0F268815B001FFA3D
:1021400083FE1BB2002BABBF4FEA4E0E82EA430365
:102150001FFA8EF39BB28D4200F0838315F801EBDA
:1021600083EA0E230FFA83FEBEF1000FB3DA82EA90
:102170004E0E0FFA8EF31FFA8EFEB0E798474CE52D
:10218000019B0B9AD3F80004C0F57F739A423FF687
:10219000B8AE019C0CA904F1040A504442F070FB53
:1021A000D4F80024022A3FF4ACAE10195346023092
:1021B00002E098423FF4A5AE1C781946442C03F186
:1021C0000103F6D11C78502CF3D1019C5046091B19
:1021D0000F1FD21B0AEB070142F082FB0023D4F849
:1021E00000249E46D21B0492C4F800249B461A4643
:1021F0001846CDF80439CDF80839CDF80C390DF56D
:10220000A467049C0BF106018C42FFF47AAE01999D
:102210000BF1020401EB0B052979442940F0FF8200
:102220006979502940F0FB82019995F80880214492
:102230000979ED7901F00F0C08F00F090909002A5E
:1022400040F0DA824FF48B7323FA0CF3DB0787F844
:10225000E893797087F800C040F1E182B2EB181F73
:1022600040F01781049A05EB0B039A42FFF449AE44
:102270000BF105010DF22459EA1F5144484442F084
:10228000FFFAD7F8E433D7F8ECB3073B019A5819B3
:1022900005EB0B03134493F802C0DD78C7F8E403A1
:1022A0004FF6FF73002800F0DF80011D4C4641F21D
:1022B0002102394441E05B001FFA83FE1BB2002B70
:1022C000C0F2CC804FEA4E0E1FFA8EF30FFA8EFE4C
:1022D000BEF1000FC0F2BB805B001FFA83FE1BB291
:1022E000002BC0F2AE804FEA4E0E1FFA8EF30FFAAB
:1022F0008EFEBEF1000FC0F29D805B001FFA83FED0
:102300001BB2002BC0F290804FEA4E0E1FFA8EF3E4
:102310000FFA8EFEBEF1000F7FDB5B001FFA83FE1B
:102320001BB2002BABBF4FEA4E0E82EA43031FFAEB
:102330008EF39BB28C4200F0978014F801EB83EA95
:102340000E230FFA83FEBEF1000FB4DA82EA4E0EBE
:102350000FFA8EF31FFA8EFEB1E7019B4FF42E7237
:1023600003F5765103F56D502831283042F0B8FA64
:102370001E211D2310E5019B4FF42E7203F57956A3
:1023800003F58141304642F0ABFA1E221D232EE5B3
:10239000019B4FF42E7203F5DD5103F5CB50103144
:1023A000103042F09DFA1E211D2373E4019B4FF46F
:1023B0002E7203F5F95703F505513846203142F0E6
:1023C0008FFA1E221D23BCE4019B4FF42E7203F5ED
:1023D000F45103F5E2500831083042F081FA1E2131
:1023E0001D2380E49847814688469FE498478046AD
:1023F0000F46F2E4984780460F4642E498478046ED
:102400000F466AE4984707460E46BCE482EA4E0E41
:102410000FFA8EF31FFA8EFE94E682EA4E0E0FFA42
:102420008EF31FFA8EFE7CE782EA43030FFA83FEE7
:102430009BB26FE782EA4E0E0FFA8EF31FFA8EFE02
:102440005FE782EA43030FFA83FE9BB251E782EA19
:102450004E0E0FFA8EF31FFA8EFE41E782EA430317
:102460000FFA83FE9BB233E7BCEB132F40F0A7813A
:10247000DBB29D4240F0A38197F8E83397F8E92357
:10248000934216D00132D2B2032B87F8E9237FF6AC
:10249000B8AE049B5046A3EB0B020AEB0B0142F0D3
:1024A0001FFA019AD2F80034A3EB0B03C2F80034F0
:1024B00027E5049B0AEB0B01A3EB0B02504642F00D
:1024C0000FFA01994FF47A72D1F80034A3EB0B03A1
:1024D000C1F800344DAB1846394642F0D1F901221B
:1024E00080F8E82342780346042A00F01B81039C0D
:1024F000B448D4F8E4332278D908A0FB0101F72BC3
:102500004FEA9101029161787FF6FBAC0434B14649
:102510004FF0000A3D462646073302EB01120593B1
:10252000019BD2B2049203F5405B049B4FF0F80884
:10253000AB7045F244031AFB08F12B80059B85F82C
:1025400004A05F1AFF2F28BFFF27FBB2EB70073BE9
:10255000DCB2224618FB0A4431440DF2255042F009
:102560008FF9002C00F0DB80039B043418193146EE
:102570004FF6FF7341F2210224E06400A3B224B2BB
:10258000002C31DB5B009CB21BB2002B32DB640001
:10259000A3B224B2002C33DB5B009CB21BB2002B35
:1025A00034DB6400A3B224B2002C35DB5B009CB2A8
:1025B0001BB2002BABBF640082EA4303A3B29BB201
:1025C000814233D011F8014B83EA04231CB2002C62
:1025D00027DB5B009CB21BB2002BCEDA82EA4303FE
:1025E0001CB2002C9BB2CDDA82EA440423B2002B49
:1025F000A4B2CCDA82EA43031CB2002C9BB2CBDA41
:1026000082EA440423B2002BA4B2CADA82EA43036A
:102610001CB2002C9BB2C9DA82EA440423B2A4B2F1
:10262000C7E782EA440423B2A4B2D5E7190ADBB2B1
:10263000DBF84C4AEA19132C02F8021C02F8013CA0
:10264000C5F800711ED804EB841009EB80004FF42C
:102650008272294600F2FC5042F012F9BAFA8AF36B
:1026600041F6502209EB04015B0901348B54CBF88D
:102670004C4A029B0AF1010A5FFA8AFA53453FF677
:1026800054AF3EE44FF00008019A214602F5695725
:10269000099614464646CDE907950F37CDF818A0A0
:1026A00003E0B14204F5827430D917F8013F354692
:1026B0000136002BF5D0B14228D9BA46B1464FF4C5
:1026C000827804F517533C331AF8012F4AB909F1FF
:1026D0000109894508F58278E3D21AF8012F002A0A
:1026E000F5D003EB08014246184642F0F9F8DBF852
:1026F0004C2A03462A44A2EB090109F10109494584
:1027000008F58278CBF84C1ADED8CAE713290C46B4
:10271000DDE90795DDF818A0099EAAD893E7FF2305
:10272000194685E7D0F8E423092A07D04FF47B72D5
:102730001946039842F0A4F8FFF7E3BB0279082A90
:102740003FF4DFAB052AF1D1DA7980791204000277
:1027500080182CBF0121002100265A7993F809A086
:1027600080181A7A41F100011206821893F80A8043
:1027700041F10001921993F80BE09219514493F83A
:102780000CC041EB08211B78921941EB0E419219C4
:1027900041EB0C61082B3A60C9F8001020D0022BE5
:1027A00012D0012B7FF4ADAB029B3946D3F8402108
:1027B000019B03F5F950FFF719F8FFF7A2BB0BF1E6
:1027C000020B66E611420821019B394603F5E250EF
:1027D000029B0830D3F84021FFF708F8FFF791BBC0
:1027E000019B394603F5CB50029B1030D3F84021B2
:1027F000FEF7FCFFFFF785BB4FF48B7E2EFA0CFE35
:102800001EF0010F0BD03C7864457FF442AE7C781B
:102810008C427FF43EAE99457FF43BAE1EE5A34665
:1028200037E682EA43030FFA83FE9BB282E482EA30
:102830004E0E0FFA8EF31FFA8EFE72E482EA430305
:102840000FFA83FE9BB264E482EA4E0E0FFA8EF317
:102850001FFA8EFE54E482EA43030FFA83FE9BB212
:1028600046E4BCEB132F40F0B480DBB29C4240F056
:10287000B08097F8E83397F8E923934216D00132F5
:102880005FFA82F9032B87F8E9937FF6CBAB5846C2
:10289000AAEB08020BEB080142F022F8D6F8F83553
:1028A000A3EB0803C6F8F835FFF720BBAAEB080234
:1028B0000BEB0801584642F013F8D6F8F8354FF400
:1028C0007A72A3EB0803C6F8F8354DAB18463946C3
:1028D00041F0D6FF012442780346042A80F8E843F9
:1028E0007FF404ABD0F8E423092A61D10279082AE5
:1028F0003FF4FCAA052A5BD18179C279090212044E
:1029000089182CBF012000204FF000095A7993F854
:10291000098089181A7A40F1000012068A189F7AF5
:1029200040F1000012EB090293F80BE012EB0902F0
:1029300000EB080193F80CC041EB07281B7812EB61
:10294000090748EB0E4817EB090548EB0C68022B0A
:1029500057D0012B7FF4CAAA029BD3F81001D3F8F9
:10296000409100283FF4C2AA019B4FF0000A0124C5
:1029700003F5795B06E00AF1010A82450BF1180BB9
:10298000BFF4B4AADBE90023984508BF9542F2D111
:10299000D9F80030334A1B688BF8084093425AD16B
:1029A00002F00AF8029BCBE90401D3F81001E2E738
:1029B000039C19464FF47B72204641F061FF94F866
:1029C000E833002B3FF492AA03980DF6141DBDE8DE
:1029D000F08F08F102085AE74FF48B75CD40ED07F0
:1029E0000CD53D788D427FF452AF797891427FF4D7
:1029F0004EAF9E457FF44BAFFFF742BBDDF8108032
:102A000045E7019B029A03F5405BDBF8380ED2F8EC
:102A100040A100283FF46AAA03F56D57283706E065
:102A200009F10109814507F11807BFF45FAAD7E949
:102A30000023984508BF9542F2D1DAF80030094AE0
:102A40001B683C72934209D101F0B6FFC7E904014B
:102A5000DBF8380EE4E748469847A3E75046984726
:102A6000F4E700BFF91200102DE9F04F2DED068BB1
:102A70000646ADF2344D11A806F13001FFF7B4F867
:102A80009DF82C34002B40F03182D14D06F5804466
:102A9000D4F8D00303681B68AB4240F0B18201F068
:102AA0008BFF07468846D4F8A033002B40F0B28154
:102AB00042F6F821D4F8A833FA1AD4F8AC3368EB0C
:102AC00003038A4273F1000380F0FC81D4F8000410
:102AD00003681B68AB4240F0F38101F06DFF06F51F
:102AE0008848D8F80820D8F81430D8F81C9002FB91
:102AF00003F7D8E9033C03FB0C77ACFB02CE774429
:102B0000D8F818E01CEB0E0C47EB0907604571EB99
:102B10000707C0F05781B0EB0E0061EB090141F0EF
:102B2000CBFE013041F10001C8F8141006F58241D6
:102B3000C8F8100078310BA8FEF7A6FCDDED0B7A83
:102B4000F5EEC07AF1EE10FA00F1CD819FEDA17A99
:102B5000F4EE477AF1EE10FA77FE277AF0689E4A93
:102B600003681B68934240F0BF850269436906EE23
:102B7000902A9B1A07EE103AB8EE477A9FED956AB5
:102B800027EE277AF8EE666AC7EE067A77EEA67A1F
:102B9000FCEEE77A007917EE903A42081F288ABFC8
:102BA00002F0030202F0070208328C4902EB8202B3
:102BB00092001144C20758BF4FF6FF7208689BB2DB
:102BC00044BF874A1B044340134001F580510B600A
:102BD00094F8B831002B40F0758202270023DFED16
:102BE000817A059394F8F031CDED077A002B40F00F
:102BF000CA824FF002080023DFED7A7A039394F83B
:102C00002832CDED047A002B40F023834FF00209E7
:102C10000023DFED747A019394F86032CDED027AEF
:102C2000002B40F07A834FF0020ADFED6E7A94F8C1
:102C30009832CDED067A0026002B40F0D2834FF07B
:102C4000020B002500240F226749684825F0FAFB93
:102C500001226749654825F0F5FB1622654963485E
:102C600025F0F0FB3946614825F0D6FD0122624986
:102C7000074625F0E7FB079841F0F6FD0B460246B4
:102C8000384625F073FE074604225C4925F0DAFB3E
:102C90000599384625F0C4FD0422594925F0D2FB98
:102CA00016225849514825F0CDFB41464F4825F0A2
:102CB000B3FD01225049074625F0C4FB049841F0BA
:102CC000D3FD0B460246384625F050FE0746042247
:102CD0004A4925F0B7FB0399384625F0A1FD0422A7
:102CE000474925F0AFFB16224749404825F0AAFB8B
:102CF00049463E4825F090FD01223F49074625F010
:102D0000A1FB029841F0B0FD0B460246384625F083
:102D10002DFE07460422394925F094FB01993846D7
:102D200025F07EFD0422364925F08CFB162237491A
:102D30002E4825F087FB51462C4825F06DFD0122D9
:102D40002D49074625F07EFB069841F08DFD0B4688
:102D50000246384625F00AFE07460422274925F098
:102D600071FB3146384625F05BFD0422244925F0ED
:102D700069FB162226491D4825F064FB59461B486D
:102D800025F04AFD01221C49064625F05BFB28463A
:102D900041F06AFD0B460246304625F0E7FD054648
:102DA0000422164925F04EFB2146284625F038FD21
:102DB000042213490DF2344DBDEC068BBDE8F04FF3
:102DC00025F040BB0DF2344DBDEC068BBDE8F08F15
:102DD000F91200100000C8422D1200100C800A40A9
:102DE0000000FFFF0000000060490410B44900200B
:102DF00070490410744904108C490410904904105F
:102E000098490410A0490410B8490410D04904108E
:102E1000E8490410012B00F0F7800021D4F8B0330A
:102E2000A048FA1AD4F8B43368EB0303904271EB6C
:102E30000303C0F03F84D4F8F0039B4A03681B6887
:102E4000934240F05A844FF0504201230179526876
:102E50008B4013427FF43AAED4F8F80306F587416D
:102E600003681522D3F8009038310BABC84718B16E
:102E70000B9B152B00F047840022D4F8D003036885
:102E80001B68C4F8A023AB4240F01D8401F094FD00
:102E9000C4F8A803D4F8F403844A0368C4F8AC1354
:102EA0001B68934240F01C854FF00002037942EC0E
:102EB0004030D4F8000403681B68AB423FF40DAE09
:102EC00098470CE6D4F8F403784A03681B689342E9
:102ED00040F00F844FF00102037942EC40300123AF
:102EE000C4F8A033F2E5DFED727A37E69DF844309E
:102EF000082B00F09683012B7FF4C7ADDDF8283452
:102F00001B2B7FF4C2AD9DF848300A2B7FF4BDAD7A
:102F1000DDF8532006F58044D4F888010392DDF8EB
:102F2000572003680492DDF85B20624D1B68019214
:102F3000DDF85F20AB42BDF849B0DDF84BA0DDF80D
:102F40004F90029240F04A8501F036FD07468846D0
:102F500094F8B831002B00F02485D4F88801036878
:102F60001B68AB4240F0418501F026FD02464FF45C
:102F70007A704FF0000ED4F87831D4F8B4C103FB66
:102F800000F0D4F8B031D21A61EB0C0190427EEB24
:102F9000010194F8B8211DD30592002A00F00185A3
:102FA000F81A68EB0C0102F070FB94ED618A05EEF3
:102FB000900A9FED416AB7EE007AC5EE867A37EE49
:102FC000487AD4ED706A67EE877AE8EE267AC4ED27
:102FD000707A059A002A00F0E484039BC4E965A98D
:102FE000C4F89C31049BC4E96C78C4F8A031019BFF
:102FF000A4F890B1C4F8A431029BC4F8A83147E505
:103000009847074688464EE5D4F8F00326490268FB
:1030100012688A4240F06884027993404FF050422F
:10302000526813420AD1D4F8F80306F587410368C1
:103030001522D3F8009038310BABC8470021D4F8E3
:10304000A833D4F8AC231D48FB1A68EB020298425F
:103050009141BFF43BADDFF868E00DF12C0CBEE808
:103060000F00ACE80F009EE80300D4F8F8934CF88A
:10307000040B8CF80010D9F8003048461522D3F81C
:1030800008900BA90AABC84700283FF4F5AE0A9B8D
:10309000152B7FF4F1AE0223C4E9EC78C4F8A03319
:1030A00014E500BF07A50700D9120010F1120010A7
:1030B00000000000F91200100024744927460F0098
:1030C000E45A0410D4F8880103681B68AB4240F04E
:1030D0001B8401F071FC4FF47A770026D4F8782134
:1030E00094F8B83107FB02F2D4F8B071C01BD4F8E1
:1030F000B47161EB070182428E4180F0D7810227D3
:10310000002B3FF46BADD4F8880103681B68AB4219
:1031100040F0FF8301F050FC4FF47A760022D4F89F
:103120007831D4F8B48106FB03F3D4F8B061801B86
:1031300061EB080183428A41FFF450AD94F8B83145
:10314000002B3FF44BADD4F8880103681B68AB42F9
:1031500040F0DD8301F030FC801B4FF000034FF4A2
:103160007A7261EB080141F0A7FBB7EE007AD4ED6B
:10317000707AC7EE277A94F8F031CDED077A059092
:10318000002B3FF436ADD4F8D80103681B68AB427E
:1031900040F0B68301F010FC4FF47A720026D4F8A8
:1031A000C83102FB03FCD4F8E82194F8F031801A0E
:1031B000D4F8EC2161EB0201844576EB010180F04B
:1031C0000C824FF00208002B3FF415ADD4F8D80163
:1031D00003681B68AB4240F0918301F0EDFB4FF4B4
:1031E0007A760022D4F8C831D4F8E89106FB03F3CC
:1031F000D4F8EC61B0EB090061EB0601834272EB9D
:103200000101FFF4F8AC94F8F031002B3FF4F3AC7B
:10321000D4F8D80103681B68AB4240F06D8301F01D
:10322000CBFBB0EB09004FF000034FF47A7261EB77
:10323000060141F041FBB7EE007AD4ED7E7AC7EE8D
:10324000277A94F82832CDED047A0390002B3FF4CE
:10325000DDACD4F8100203681B68AB4240F0638316
:1032600001F0AAFB4FF47A720026D4F8003202FB78
:1032700003F3D4F82022801AD4F8242261EB02014F
:10328000834276EB010194F8282280F05A814FF0B6
:103290000209002A3FF4BCACD4F8100203681B6892
:1032A000AB4240F03E8301F087FB4FF47A76002278
:1032B000D4F80032D4F824A206FB03F3D4F8206239
:1032C000801B61EB0A01834272EB0101FFF4A0ACA9
:1032D00094F82832002B3FF49BACD4F8100203681A
:1032E0001B68AB4240F01B8301F066FB801B4FF074
:1032F00000034FF47A7261EB0A0141F0DDFAB7EE98
:10330000007AD4ED8C7AC7EE277A94F86032CDED4E
:10331000027A0190002B3FF486ACD4F8480203688F
:103320001B68AB4240F0F98201F046FB4FF47A7221
:103330000026D4F8383202FB03F3D4F85822801A5E
:10334000D4F85C2261EB0201834276EB010194F830
:10335000602280F01C814FF0020A002A3FF465AC25
:10336000D4F8480203681B68AB4240F0D48201F0F5
:1033700023FB4FF47A760022D4F83832D4F85CB2CA
:1033800006FB03F3D4F85862801B61EB0B01834208
:1033900072EB0101FFF449AC94F86032002B3FF46A
:1033A00044ACD4F8480203681B68AB4240F0AA82E0
:1033B00001F002FB801B4FF000034FF47A7261EBC7
:1033C0000B0141F079FAB7EE007AD4ED9A7AC7EEA4
:1033D000277A94F898320646CDED067A002B3FF412
:1033E0002EACD4F8800203681B68AB4240F0A38285
:1033F00001F0E2FA4FF47A724FF0000CD4F8703218
:1034000002FB03F3D4F89022801AD4F8942261EBE3
:10341000020183427CEB010194F898226BD24FF0B9
:10342000020B002A3FF40DACD4F8800203681B683D
:10343000AB4240F07E8201F0BFFA4FF47A724FF057
:10344000000ED4F8703202FB03FCD4F89032D4F8AA
:103450009422C01A61EB020184457EEB0101FFF466
:10346000F0AB94F8981200293FF4EBABD4F880024B
:10347000CDE9083201680968A94240F0568201F09E
:103480009BFADDE90832C01A61EB020100234FF418
:103490007A7241F011FAD4EDA87AB7EE007AC7EE4D
:1034A000277A044617EE905AFFF7CDBB002B3FF466
:1034B00094ABF7EE006A94ED707AC6EE877AF4EE7C
:1034C000677AF1EE10FA80F1048194ED5F7AD4ED21
:1034D000606A37EE266AF4EEC67AF1EE10FA00F36F
:1034E000F88037EE667AF4EEC77AF1EE10FA4CBF48
:1034F0000127002704E6002A3FF4A1ABF7EE006A9B
:1035000094EDA87AC6EE877AF4EE677AF1EE10FAB7
:1035100080F1E48094ED9D7AD4ED9E6A37EE266AC0
:10352000F4EEC67AF1EE10FA00F3D88037EE667A40
:10353000F4EEC77AF1EE10FA4CBF4FF0010BE34600
:103540006FE7002A3FF462ABF7EE006A94ED8C7AE5
:10355000C6EE877AF4EE677AF1EE10FA80F1BB805E
:1035600094ED817AD4ED826A37EE266AF4EEC67A5B
:10357000F1EE10FA00F3AF8037EE667AF4EEC77A18
:10358000F1EE10FA4CBF4FF00109B14681E6002A76
:103590003FF449ABF7EE006A94ED9A7AC6EE877A6B
:1035A000F4EE677AF1EE10FA80F19B8094ED8F7A59
:1035B000D4ED906A37EE266AF4EEC67AF1EE10FA90
:1035C00000F38F8037EE667AF4EEC77AF1EE10FAE8
:1035D0004CBF4FF0010AB246BFE6002B3FF409ABE7
:1035E000F7EE006A94ED7E7AC6EE877AF4EE677A9B
:1035F000F1EE10FA6AD694ED737AD4ED746A37EE70
:10360000266AF4EEC67AF1EE10FA5FDC37EE667ADF
:10361000F4EEC77AF1EE10FA4CBF4FF00108B04655
:10362000D1E5DDF82834092B7FF42FAA9DF8483026
:10363000092B7FF42AAA06F58044D4F81002CF4D56
:103640000368DDF849A01B68DDF84D90AB4240F0FF
:10365000C18101F0B1F90746884694F82832002B61
:1036600000F09481D4F8100203681B68AB4240F06C
:10367000BA8101F0A1F94FF47A7B4FF0000ED4F833
:103680000032D4F824C20BFB03FBD4F82032C01A5A
:1036900061EB0C0283457EEB020280F04E8194F8D0
:1036A0002832002B00F07281C4E986A9C4E9887829
:1036B000FFF7EEB9D4F8D003C4F8A01303681B6871
:1036C000AB423FF4E3AB9847FFF7E2BB4FF0010892
:1036D00079E5012714E54FF00109DAE54FF0010B18
:1036E0009FE64FF0010A38E617EE901A9847FFF769
:1036F0006FBA01219847FFF7F2BB984700283FF4C3
:10370000ABABFFF7E3B994F8B93394F8B8231B02D5
:1037100003F4FE431343152B94F8BA237FF4D6A980
:10372000032A7FF4D3A994F8C133082B7FF4CEA9E0
:10373000B4F9C733DFED925A06EE103AB4F9C53347
:10374000B8EEC66A07EE103AB4F9C93326EE256A18
:1037500006EE903AB4F9CB33B8EEC77A07EE903A5A
:10376000F8EEE66AF8EEE77A27EE257A66EEA56AC5
:1037700067EEA57A66EE065AE7EE075AE6EEA65A17
:10378000E7EEA75AB1EEE55AC6EE058A86EE858ABF
:1037900087EE059A87EE85AAF7EE009A28EEA87ABA
:1037A00068EE887AA9EE097AF0EE004AE9EE0A7A24
:1037B000F0EE696A77EEA77AE7EE646A17EE900A90
:1037C00016EE901AC4F8B073C4F8B48301F0C8FFC1
:1037D00068EE497AE8EE8A7ABFEE007A77EEA77A49
:1037E000F4EEC77A06EE100ADFED666AF1EE10FA23
:1037F00026EE269A00F1FD80F4EE697AF1EE10FAD9
:1038000079FEA77A17EE900A01F078FEDFED5D7A77
:1038100008EE100AD4F8D80128EE278A03681B683E
:10382000AB4259D101F0C8F80746884694F8F03108
:103830002BB3D4F8D80103681B68AB425AD101F00E
:10384000BBF84FF47A724FF0000ED4F8C83102FB87
:1038500003FCD4F8E831D4F8EC21C01A61EB020182
:1038600084457EEB010117D294F8F0313BB184ED31
:10387000789A84ED798AC4E97A78FFF727B9012329
:1038800084ED789A84ED798AC4F8E871C4F8EC8103
:1038900084F8F031FFF71AB994F8F091B9F1000FFC
:1038A000EDD0F81A68EB020101F0EFFED4ED758A55
:1038B00005EE900A9FED346AB7EE007AC5EE867A7F
:1038C00037EE687AD4ED7E6A67EE877AE8EEA67AFC
:1038D0004B46C4ED7E7AC9E7984707468846A5E778
:1038E00000219847FFF7F2B8904700283FF49BABC0
:1038F000FFF7A4BB9847A4E7984792E498476EE483
:10390000984749E4984755E59847FFF7E4BB98473F
:1039100022E4984700E498472BE5984706E5984746
:10392000E4E49847C1E498479CE48847DDE908321D
:10393000A9E5984781E598475CE594F828B2BBF182
:10394000000F23D0F81A68EB0C0101F09EFE94EDF5
:10395000838A05EE900A9FED0C6AB7EE007AC5EEF9
:10396000867A37EE487AD4ED8C6A67EE877AE8EE8D
:10397000267A5B46C4ED8C7A93E600BFF9120010FC
:1039800000008038E12E6542002474490123C4E917
:1039900086A9C4F82072C4F8248284F82832FFF77C
:1039A00077B8039BC4E965A9C4F89C31049BA4F8CB
:1039B00090B1C4F8A031019BC4F8B071C4F8A4312F
:1039C000029BC4F8B481C4F8A831012384F8B8314B
:1039D000FFF75EB89847074688463EE69847074691
:1039E0008846FFF7B5BA984745E698470246FFF77D
:1039F000BEBA17EE100A07E780B5ADF58A4D8AB05A
:103A000003F0EEFC49494A4B4A4A0D681C680CAB6E
:103A1000C3E9002548480EABC3E900240DF1640951
:103A20000B90464948460DF17C080BAB25AFFDF7DE
:103A3000BDFC40464249FDF7B9FC2BAE3846414932
:103A4000FDF7B4FC31AD30463F49FDF7AFFC3F49CF
:103A50002846FDF7ABFC0D203D4B10AC20712360D8
:103A60004FF0000A00F0AEF820794AEC4400002242
:103A7000012100F093F80E20364B12AC2360207128
:103A800000F0A0F823794AEC44300DF5A562A2F5C8
:103A90009B64314B314A0DF1540C22600FCB8CE802
:103AA0000F00114605F0C0FF607A032100F058F8BE
:103AB000207A032100F054F8607A0022012100F0FE
:103AC0006DF8207A6C460022012100F067F842ABC5
:103AD00009930DF5A563A3F5886C0BAB37930CAB7D
:103AE0000DF1DC0ECEF804300EABCEF80830CEE986
:103AF0000398CEE9057610ABCEF8203012ABCEF8A5
:103B0000243014ABCEF82830CEF81C50BCE80F009F
:103B10000FC49CE80F0084E80F0009989EE80E008F
:103B2000FDF79AFE0998FEF79FFFFBE77C5A041009
:103B3000785A0410145A04103C5A0410D05A041035
:103B4000BC5A0410A85A0410945A0410805A041045
:103B5000485A0410545A041020280020285A0410EF
:103B600010B44FF480740C4B53F8202003EB800307
:103B7000C00082F0400200F1804003F5805C02F05A
:103B8000C00200F5203003F54053CCF8002041601E
:103B90001C605DF8044B70470480034010B4084C6F
:103BA000C90041EA820154F8202004EB800351400F
:103BB00003F5805301F00C015DF8044B1960704768
:103BC0000480034030B44FF0000343EC440043EC66
:103BD000400005254FF480740B4BC20053F82010B1
:103BE00003EB800081F0400102F1804303F52033B4
:103BF00001F0C00200F5805100F540500A605D60A0
:103C0000046030BC704700BF048003400FB400B5AF
:103C100083B0049C074803F027FC3CB105A920466B
:103C2000019103F007FA044803F01EFC012003F0A1
:103C300019FA00BF004A04109C49041070B586466A
:103C4000EFF3108572B6124CD4E8CF6F0120002E2E
:103C5000FAD1C4E8460F002EF6D1BFF35F8F4FF0C4
:103C6000010CC80801F007030CFA03F31EF800C0AA
:103C70001CEA030608D14CEA030C0EF800C0C4E8A5
:103C80008F6F85F3108870BD1046FFF7BFFF00BF30
:103C90006F4D0020F8B5EFF3108572B6234CD4E8D1
:103CA000CF7F0126002FFAD1C4E8476F002FF6D14D
:103CB000BFF35F8F9A4227D80126D70810F807E094
:103CC00002F0070C06FA0CFC1EEA0C0F00EBD20700
:103CD0000DD125E04FEAD20E10F80EE002F0070CED
:103CE00006FA0CFC1EEA0C0F00EBD20718D00132CA
:103CF0009342EFD24FF0FF300023C4E88F3F85F3AB
:103D00001088984207DBF8BD0023C4E88F3F85F395
:103D100010884FF0FF300029F5D00698FFF776FFA6
:103D20004EEA0C0E104687F800E0E5E76F4D0020E4
:103D3000044A1078431CDBB2182B28BF10231370E1
:103D4000704700BF3028002010B5054C82B00146F6
:103D50001F23182200940348FFF79CFF02B010BDF8
:103D6000104A0410B44E00204FF0E022936843F054
:103D700000539360704700BF0021044B03F1200201
:103D8000C3E88F1F01339342FAD17047644D00207E
:103D90004FF0E0234FF08032C3F80024C3F804242E
:103DA000C3F80824C3F80C24C3F81024C3F814245F
:103DB000C3F81824C3F81C24C3F82024C3F824240F
:103DC000C3F82824C3F82C24C3F8302462B6704703
:103DD000012300F01F029340400941B1800000F12F
:103DE000604000F56140C0F8803103607047024ACE
:103DF000203042F82030704700E100E00123064AFD
:103E0000410952F8212000F01F008340134214BFE3
:103E100001200020704700BF00E100E001224309BB
:103E2000034900F01F008240403341F823207047CF
:103E300000E100E0054A10309268054B52F820007E
:103E4000C01A47288CBF00200120704700ED00E019
:103E50003428002010B5EFF3108C72B6114BD3E864
:103E6000CF4F0122002CFAD1C3E8442F002CF6D109
:103E7000BFF35F8F0C4A103092680C4C52F8202030
:103E8000A24201D091420BD1074A926842F8201019
:103E9000BFF35F8F0022C3E88F2F8CF3108810BD13
:103EA00000F042FF6D4D002000ED00E01101001018
:103EB0002DE9F04F0B4683B0EFF3108A72B6DFF8AE
:103EC000AC91D9E8CF4F0121002CFAD1C9E8441FA9
:103ED000002CF6D1BFF35F8F5D4991F90080B8F1F6
:103EE000000FC0F2B2805B4C08EB480704EB87057B
:103EF000AE7910300E7058494FEA4806896800962E
:103F000051F82010BF000E1B472E34D821F0010EAF
:103F10009EF80760964209D871E00CEB4C0604EB62
:103F2000860696F807B093454ED9B6469EF906C068
:103F3000BCF1000FF1DA4BF601560EF1040B043D13
:103F4000A5EB0B05C5F34A056FEAC545009F6FEA6F
:103F5000D5454744BB468EF80680DFF80C8104EB5C
:103F60008707AEF8045044F82B80BE8087F806C05F
:103F7000FA71BB601AE0394EB14266D1AB60384B82
:103F8000EA71BA1C2244043B9B1AC3F34A036FEA4A
:103F9000C3434FF421426FEAD343E2536B80FF22C5
:103FA0004BF60153AA71AB8045F001012A4B9B6887
:103FB00043F82010BFF35F8F0023C9E88F3F8AF3D7
:103FC000108803B0BDE8F08FF3463BF8046F760528
:103FD0000FD4761502360BEB460601966FF00706F6
:103FE000F61B019F361B3E44C6F34A0646F4604664
:103FF000A5E706F5FF1606F5FF561F36E9E7AB60A5
:104000006FF00703EA714FF42142DB1B1B1B734463
:10401000E253C3F34A02124B124E02372744043BC9
:104020003243DB1BAA80C3F34A030F4A33436B803E
:104030004AF6AA2173461B1B5B415943090DA9711E
:10404000CEF8002045F00101B0E700F06DFE00BFA2
:10405000785300203428002000ED00E0110100100A
:104060007C28002000E0FFFF014880476D4D0020C4
:10407000F0B5EFF30585EDB2EFF3108C72B62C4975
:10408000D1E8CF2F0123002AFAD1C1E8423F002A0C
:10409000F6D1BFF35F8F274E40F0010EB4684AF6A9
:1040A000AA2354F82570244A0446A41A64416343A1
:1040B0001B0D77455BB223D092F906409C4224D079
:1040C00092F912409C422BD092F91E409C4229D07A
:1040D00092F92A409C4227D092F936409C4225D042
:1040E00092F942409C4208BF05240FD0134A002495
:1040F000157813708571C1E88F4F8CF31088F0BD6F
:10410000B2680F4C42F82540F0E7002404EB440469
:1041100002EB8402FF2494714BF601549480E5E78E
:104120000124F3E70224F1E70324EFE70424EDE799
:104130006D4D002000ED00E0342800207853002071
:104140001101001010B5074C82B001460523002272
:1041500000940548FFF79EFD0028A8BFC0F133007A
:1041600002B010BD2C4A04107D530020014B0B44BB
:1041700003607047644D002070B5104C104DAC4288
:104180000ED2FF26236863B1FFF7D2FD0146204619
:10419000FFF7ECFFA680BFF35F8F0834AC42F1D38A
:1041A00070BDFFF7C5FD01462046FFF7DFFF267112
:1041B000BFF35F8F0834AC42E4D370BDA830002059
:1041C000B030002010B50446FFF7B2FD014620468E
:1041D000FFF7CCFFFF232371BFF35F8F10BD00BF3C
:1041E00010B504460120FFF7AFFD034B03442360E5
:1041F000BFF35F8F10BD00BF644D0020024B0B4426
:104200000360BFF35F8F7047644D002010490B6857
:10421000EFF3108072B6D3E8CFCF0122BCF1000FCC
:10422000F9D1C3E84C2FBCF1000FF4D1BFF35F8F7D
:10423000084A4FF0000C137809680133DBB21370A1
:10424000C1E88FCF80F3108840BF00200021704765
:10425000585300207A5300202DE9F04F2DED028BAA
:1042600085B0EFF30583DBB2103B9A0818BF01223B
:104270004FF0010103F0030018BFAF4DAF4B08BF73
:10428000AF4D00EB820253F8226001FA00FB05F506
:1042900041539FEDA78B0190C3F804B02EE0B38883
:1042A000180440F19280B379002B40F0DC80B6F91D
:1042B00008100029C0F21D81736901EB410103EB75
:1042C000C103D3E90247B7F1FF3F08BFB4F1FF3F95
:1042D0000DD0019B05EB8301AB6A0A69D21AE31A80
:1042E000934203D32B6A13EA0B0F00D10C612846CB
:1042F00000F05AFBA042B941C0F2FB80B6F9083089
:10430000C5F83CB0002B0093C9DBD6F8149003EB42
:10431000430A284609EBCA07D7E9024800F044FBE4
:10432000A04271EB0801BADBB8F1000FC0F2C38004
:10433000D7E90431834A934200F0ED807A88B6F9D8
:10434000080092B242EA0040984702460B4652EA01
:10435000030100F0B080002B80F2D180B4EB020E9C
:1043600068EB030839F93A30C7E902E8002B96DB1D
:10437000716903EB430201EBC202D2E90270BE4550
:1043800078EB000C4FEA430289DBB4462CF8083F77
:104390000BE031F93230A446002B0DDB03EB430078
:1043A00001EBC0005A00D0E90270BE451A4478EB18
:1043B000000001EBC204ECDA29F83A30009BACF8BB
:1043C0000030B38818043FF56EAF3369EFF3108205
:1043D00072B6D3E8CF0F01210028FAD1C3E8401FFD
:1043E0000028F6D1BFF35F8F4FF6FF74B08800232B
:1043F000316900B2B480C1E88F3F82F310889842DF
:10440000FFF651AF0746A946746906F1080807EBA5
:10441000470E04EBCE03D3E90250B6F90830C44688
:10442000002B13DBB246009704E034F93630944693
:10443000002B09DB03EB430604EBC602D2E9027151
:10444000BD4270EB0101F0DA5646009FACF80070F7
:1044500034F93E7024F83E30002FD8DAB3794D4657
:10446000002B3FF424AF0023B371B6F9083006F1F6
:104470000808591C3DD01946776903E080465A1C4C
:104480003FF417AF03EB430207EBC200B0F802C0E2
:104490001C461CF4004F9E4637F93230EED08C4259
:1044A00080ED028B05D0A8F80030318927F8321052
:1044B00034817146E3E739F83A3033813369EFF3F9
:1044C000108272B6D3E8CF0F01210028FAD1C3E8D9
:1044D000401F0028F6D1BFF35F8F7388316929F838
:1044E0003A30009B73800023C1E88F3F82F310882D
:1044F000D5E640BF05B0BDEC028BBDE8F08F284685
:10450000CDE9022300F050FA029A039B10EB020E51
:1045100043EB010826E708460B69029198470028FB
:10452000C9D00299D1E9002311E700BFAFF30080A1
:10453000FFFFFFFFFFFFFFFF00800B403053002015
:1045400000000B40594200102DE9F84F364C256908
:104550002DB1BDE8F84F0A213448FFF707BEDFF858
:10456000E4800321404600F00DFA0326C4F80C80D5
:10457000FFF7DEFB4FF0504C2D4B267003442361B8
:10458000DCF800300F216370636961801D834FF098
:104590000405A3F878504FF00505A3F890504FF0AC
:1045A0000605A3F8A8504FF007050E214FF6FF723D
:1045B00008274FF00A0EA3F8C0504FF001094FF042
:1045C0000C0C4FF0020B4FF0090A0D204FF00B05B9
:1045D000A3F868111749A280A3F808E1A160A3F825
:1045E00048B0A3F8F0A0A3F82051A3F838C1A3F86D
:1045F0005001A3F83090A3F86060A3F8D8701A8037
:104600000D4B3046C8F820700C49DC60FFF722FCE7
:1046100049463046FFF7DCFB094B0A211F6403487B
:10462000BDE8F84FFFF7A2BDA02800205853002096
:10463000644D0020FFFF100030530020594200104D
:1046400000200B4000000B4000487047A0280020CD
:10465000F8B59DF82070044616461D4637B900F09F
:10466000ABF9864265EB010100295CDB2369EFF3BE
:10467000108772B6D3E8CF1F01220029FAD1C3E810
:10468000412F0029F6D1BFF35F8FB4F902C06369EF
:104690000CEB4C01BCF1000F4FEAC10203EBC1016E
:1046A00038DB985A4FF0000E60802069C0E88FEF29
:1046B00087F310880698C1E9026508610798486188
:1046C00048880130C0F30E00012838BF012048801F
:1046D00040EA0C402169EFF3108572B6D1E8CF7F34
:1046E0000126002FFAD1C1E8476F002FF6D1BFF3A2
:1046F0005F8FA1889952A4F804C02369C3E88FEFA3
:1047000085F310880122E368217803F501538A407C
:104710005A60F8BD00232269C2E88F3F87F31088F2
:104720004FF0FF30F8BD3846F8BD00BF0146F0B588
:104730000069EFF3108772B6D0E8CF5F0124002D37
:10474000FAD1C0E8454F002DF6D1BFF35F8FB1F924
:1047500002E04C690EEB4E0CBEF1000F4FEACC05A7
:1047600004EBCC0C3DDB605B002648800869C0E8A8
:104770008F6F87F31088BCF80200CCE90223013068
:10478000C0F30E00012838BF0120059BACF80200E1
:10479000CCF81030069B40EA0E40CCF814300B6980
:1047A000EFF3108272B6D3E8CFCF0127BCF1000F30
:1047B000F9D1C3E84C7FBCF1000FF4D1BFF35F8F98
:1047C0008B886353A1F804E00B69C3E88F6F82F311
:1047D00010880122CB68097803F501538A405A609A
:1047E000F0BD00230A69C2E88F3F87F310884FF0BD
:1047F000FF30F0BD03464089B0EB214F37DD5869EB
:104800000A1402EB420210B500EBC2001C69EFF380
:10481000108C72B6D4E8CFEF0122BEF1000FF9D1AF
:10482000C4E84E2FBEF1000FF4D1BFF35F8F428872
:1048300089B292B28A4207D000221B69C3E88F2F47
:104840008CF31088002010BD42F400424280012108
:10485000002218699971C0E88F2F8CF310881C789A
:10486000DA68084602F50153A140596010BD0020E6
:10487000704700BF407870472DE9F04705460C4669
:1048800082B0EFF30587FFB2002F38D12B4ED6E967
:1048900000238B4208BF824239D0DFF8AC80D8F8C1
:1048A0000CA098F80090504600F07EF809F1040939
:1048B0005AF829301B1A281A64EB0101984271F149
:1048C000000124DA00F078F8854264EB0101002948
:1048D00015DB1B4B404600932A4623460197FFF702
:1048E00025FF011E0BDD174BC6E900545A6AA24290
:1048F00021D39B6AAB421CD31348FFF77BFF114BBC
:10490000586AA04208D2002002B0BDE8F08720BF5C
:104910000C4B586AA042F6D39B6AAB4203D30120EA
:1049200002B0BDE8F087001B18BF012002B0BDE84F
:10493000F087A242E0D120BFDEE700BF9828002028
:104940000D42001000000B40A0280020084AD0E9CA
:104950000003516A8B4204D8926A824203D3012039
:10496000704700207047581A18BF0120704700BFD9
:1049700000000B4001460248C1E90023704700BF18
:104980004D49001010B4054B054C064AA04214BF17
:104990001846581C5DF8044BFFF750B9B84E00207C
:1049A00000800B40484A04100346416A0A46986A50
:1049B000596A8A42FAD17047034B596A0A46986A83
:1049C000596A9142FAD1704700000B4010B4174A5F
:1049D000536A9C46946A536A6345FAD10019594157
:1049E0004FF0000228BF01220346CAB10F4B596A9B
:1049F0004B1C08BF0B4608D04FF0FF310B460B484D
:104A0000426A8A42FCD38A4207D1084A02E0506ACD
:104A1000884202D1906A9842F9D35DF8044B7047FE
:104A2000024A526A9142EAD8EDE700BF00000B400B
:104A300000EB400C4FEA8C0C0CF1804C0CF5803CE8
:104A4000F0B51646DCF80420051FB2F5803F38BFEC
:104A50004FF48032EDB238BFCCF80420012D2AD9B2
:104A60004FF40067254C0CF54052176054F8202095
:104A7000B2B9DCF80020012D82EA461202F0E00211
:104A80000CF5805632602AD94FF4006144F820308A
:104A90004FF480330CF500521160CCF80430F0BDB7
:104AA0006769B7FBF2FE0EF1010E0EEB4E0EBEF182
:104AB000030EFCD2DDE70129D2D103240CF54052CC
:104AC0001460DCF80820D207FBD5DCF800200B4C82
:104AD00082EA461202F0E0020CF5805632600122B2
:104AE000DCF800504D4005F00305356002FA01F195
:104AF000DCF808200A42FBD0C6E700BFBC4E00200D
:104B0000014B53F820007047BC4E002070B4039D49
:104B100004682D0345EA03451B4B002CB3FBF1F35E
:104B2000B2FBF3F61FDB194A194B904214BF4FF446
:104B300080424FF40042174C1A6003F580531A600C
:104B4000A36832EA0303FBD1212200F5405304336A
:104B5000016086601A600268002AFCDA0822C560DB
:104B60001A6070BC7047036803F03F038B42DAD1D0
:104B70008368C3F30B03B342D5D1C36803F4EE23B8
:104B8000AB42D0D1EDE700BF001BB700008005406D
:104B9000002002400000024030B44FF080441C4B23
:104BA0001C60E0B11B4CA3F54053DC611A4C40F093
:104BB000010044401C62596298624FF080454FF0FA
:104BC000E061134B1548164C1D60846019604AB9AA
:104BD00030BC4FF00042A3F580531A607047114B70
:104BE000D861EAE74FF47A7303FB02F2B2F1807FF7
:104BF0002ABF6FF07F4313461A464FF080410A4C9C
:104C000008482360094B426030BC1960704700BF00
:104C100000B00D40D3C007B02D3FF84F00A00140B9
:104C2000F3FFFF0100800D402053002000A00D4045
:104C3000012300EB4000800000F1804000F584106B
:104C400041600360704700BF002370B5DB8A0446F3
:104C50000D461646002242E800F2520254BF1021CF
:104C6000042144F252209847864633462A4620467D
:104C7000F446BDE870400A21604700BF0023DB8A8C
:104C8000002242E800F2520201D410211847042108
:104C9000184700BF08B51346021E02DB5BB141F0A6
:104CA00030018B0603D50023DB7C022B06D04FF4AA
:104CB0008170FFF7C9FF41F02001F2E74FF49170D6
:104CC000FFF7C2FF034AD2F82838002BFBD0BFF30E
:104CD0005F8F704700000E400021044B044ABFF371
:104CE0005F8F43F8041B9342F9D170470C080E40C4
:104CF0002C080E4010B44FF48D704FF42A64064A0D
:104D0000064B07491460D06019605368002BFCDA29
:104D10005DF8044B704700BF0080044000A00440D1
:104D200000B0FA00704700BF08B50148FEF76EFFFB
:104D30006C4A041038B5054C054DAC4204D254F809
:104D4000043B9847AC42FAD338BD00BFF848041082
:104D50003849041010B40748074C084B084A094961
:104D600004601A608B6832EA0303FBD15DF8044BE0
:104D7000704700BF002002407F3BEFEF0030024051
:104D8000F6FFF30300000240044BDB6CB3F5004F69
:104D900003D14FF48022024BDA64704700001150B7
:104DA000002011504FF0E022044BD2F8881D0B4335
:104DB000C2F8883D10EE3004704700BF0303300096
:104DC0006FF06041044B054A19609368DB4333F090
:104DD0006043FAD1704700BF00300240000002403B
:104DE00010B545F25320FFF749FFBDE810400346D8
:104DF0000420184710B545F25320FFF73FFFBDE8E8
:104E00001040034601201847FEF7B6BF38B51349D6
:104E1000134C144D641AA408442C224628BF442283
:104E2000284692003FF02CFD432C14D80E4AC4F1C2
:104E300044000ED005EB8403410803EBC101C3E934
:104E4000002208339942FAD1C30704D520F00100AB
:104E5000044445F82420054B9D6038BD0000001037
:104E600010010010000000201101001000ED00E012
:104E7000002370B52B4C82B0C4F88430FFF73AFFA2
:104E80000122294BDA63636C012BFCD10321264AF2
:104E9000244B11639C6B012CFCD102260525214675
:104EA0000523224A22480096FFF730FE21462B4672
:104EB000204A21480095FFF729FE002204203146B0
:104EC0001E4BFFF7B5FD2146284600221C4BFFF77D
:104ED000AFFD0022082011461A4BFFF7A9FD002262
:104EE00009201146174BFFF7A3FD002206201146AB
:104EF000134BFFF79DFD0022114B07201146FFF7D2
:104F000097FD0420FFF7FCFD00240F4BA3FB0035A9
:104F1000AD0CE0B229460134FFF78AFE062CF8D129
:104F200002B070BD0000014000300140002F685900
:104F300000000540008C864700800540001BB7003C
:104F400080D1F008006CDC0283DE1B4386B003B422
:104F500051FC0804CDE9020151FC0904CDE904012A
:104F600051EC0A04CDE9060103BCF047BDE800504E
:104F70004EEC00C4BDE800504EEC01C4BDE800504A
:104F80004EEC02C400BD000000B5FFF7DFFF02E0F9
:104F900010FE30F4F8D441EC100443EC112400EE80
:104FA000010410EE010480EE200451EC100470475F
:104FB00000B5FFF7CBFF02E010FE30F4F8D441EC6F
:104FC000100443EC112400EE010410EE210480EEE5
:104FD000200451EC3004704700B5FFF7B7FF02E042
:104FE00010FE30F4F8D410B541EC100443EC112459
:104FF00051EC040453EC0524A0FB024C5FF0000EBE
:10500000E0FB03CEE1FB02CE4CEC20440024E1FBAC
:1050100003E444EC30E480EE200451EC500410BD75
:1050200000B5FFF793FF02E010FE30F4F8D441EC36
:10503000100443EC112451EC2104A0FB01126FEA8F
:10504000820252FB100052FB12F252FB1000A0EB46
:10505000D07C53EC04245CFB13F153EC1524A1FB2E
:10506000022001FB030053EC4424A2EB000050FBA0
:105070001CF24FEA111312EB017043EBE27140EAAC
:10508000515020EA915020F0070053EC7524A0FB0A
:10509000023C53EC752400FB03CC01FB02CC53EC27
:1050A0000424ACEB824C40EA5C70A0F1010041ECBE
:1050B000400480EE200451EC7004704700B5FFF707
:1050C00045FF02E010FE30F4F8D441EC100480EE0D
:1050D000220410EEB204704700B5FFF737FF02E07C
:1050E00010FE30F4F8D440EC700400EE010410EE31
:1050F000210480EE200451EC3004704700B5FFF726
:1051000025FF02E010FE30F4F8D440EC600400EE1D
:10511000010410EE210480EE200451EC30047047AD
:1051200000B5FFF713FF02E010FE30F4F8D441ECB5
:10513000800400EE010410EE010480EE400410EE45
:105140001304704700B5FFF701FF02E010FE30F4D2
:10515000F8D441EC800400EE010410EE010480EE6E
:10516000400410EE3304704700B5FFF7EFFE02E095
:1051700010FE30F4F8D441EC100443EC112400EE9E
:10518000010410EE3004C0F30070704700B5FFF763
:10519000DDFE02E010FE30F4F8D441EC100443ECE4
:1051A000112400EE010410EE3004C0F3807070474B
:1051B00000B5FFF7CBFE02E010FE30F4F8D443EC6C
:1051C000102441EC110400EE010410EE30F48CBF09
:1051D00001200020704700BF00B5FFF7B7FE02E0D6
:1051E00010FE30F4F8D443EC102441EC110400EE2E
:1051F000010410EE30F42CBF01200020704700BFE6
:1052000000B5FFF7A3FE02E010FE30F4F8D441EC45
:10521000100443EC112400EE010410EE30F42CBF16
:1052200001200020704700BF00B5FFF78FFE02E0AD
:1052300010FE30F4F8D441EC100443EC112400EEDD
:10524000010410EE30F48CBF01200020704700BF35
:105250000022002950DA404261EB4101C9B1B1FAA4
:1052600081F30B3B17D4D3F1200C30FA0CFC98409F
:10527000994051EA0C011A44524202F2324201EBC7
:10528000025141F0004140F2FE739A4238BF70472C
:1052900021E011467EE003F1210310FA03FCA3F1A3
:1052A000010301FA03FCC3F1200320FA03F021FA01
:1052B00003F140EA0C00A3EB020202F2324214D0E6
:1052C00050F1000041EB025141F0004140F2FE7309
:1052D0009A4238BF70474FF00001A8BFC7F6F0717F
:1052E0004FF00000704700217047EBD350F10000F1
:1052F00020F00100E6E70022B9B1B1FA81F30B3BDF
:1053000016D4D3F1200C30FA0CFC9840994051EAA5
:105310000C011A44524202F2324201EB025140F2B5
:10532000FE739A4238BF704720E0114600F066B81D
:1053300003F1210310FA03FCA3F1010301FA03FCBA
:10534000C3F1200320FA03F021FA03F140EA0C0034
:10535000A3EB020202F2324212D050F1000041EB04
:10536000025140F2FE739A4238BF70474FF000017D
:10537000A8BFC7F6F0714FF00000704700217047DA
:10538000EDD350F1000020F00100E8E7002880F2A2
:1053900035804042B0FA80F30B3B11D4984001EBCA
:1053A0000302524202F2124200EB025141F000416C
:1053B0004FF0000040F2FE739A4238BF704713E08E
:1053C000C3F1000330FA03FCC3F120029040A3EBC9
:1053D000010202F212420CEB025141F0004140F294
:1053E000FE739A4238BF70474FF00041A8BFCFF616
:1053F000F0714FF0000070470021704760B3B0FAC1
:1054000080F30B3B0FD4984001EB0302524202F2AF
:10541000124200EB02514FF0000040F2FE739A423C
:1054200038BF704710E05B4230FA03FCC3F1200242
:105430009040A3EB010202F212420CEB025140F247
:10544000FE739A4238BF70474FF00001A8BFC7F6FD
:10545000F0714FF000007047002170470022A2F267
:1054600032425FEA215CACF10103A1EB03515B0521
:1054700013F5800F32D212EB535210D40B2A36DAC6
:105480009140D2F1200330FA03F319439040BCF16C
:10549000000FA8BF7047404261EB410170472032C6
:1054A0000EDD01FA02F3D2F12002D140D0401843C0
:1054B000BCF1000FA8BF7047404261EB410170474B
:1054C000524282F3050231FA02F00021BCF1000FD2
:1054D000A8BF7047404261EB4101704702D00020F5
:1054E0000021704750EA013118BF4FF0000C6FF0F7
:1054F000004101EBDC716FEAEC707047B7EE007AA7
:1055000007EE900A77EE676A37EE877A26EE877A9B
:1055100017EE103A13F0FF4F01D0002B07DBB1EE6E
:10552000C77A17EE900A17EE101A00F019B94FF06B
:10553000FF4070470022002980F2A880404261EBC2
:105540004101B1B3B1FA81F3083B16D4994010FA86
:1055500003FCC3F1200320FA03F040EA0100A2EBB0
:105560000302C2F195021CEB0C0C40EBC25040F060
:10557000004020D0FE2A16D2704703F1210311FA11
:1055800003FC5CEA000CC3F1210321FA03F0A3EB56
:10559000020202F1B50240EBC25040F000400AD0D6
:1055A000FE2A38BF70474FF00040A8BFCFF680708A
:1055B0007047114609E028BF20F00100FE2A38BFDD
:1055C0007047F0E7002832DA4042B0FA80F3083B37
:1055D0000CD4984001EB0302C2F1950200EBC250DB
:1055E00040F00040FE2A38BF704713E003F121036A
:1055F00010FA03FCC3F1210320FA03F0A3EB01022C
:1056000002F1950240EBC25040F0004008D0FE2A63
:1056100038BF70474FF00040A8BF40F0FF407047D0
:1056200028BF20F00100FE2A38BF7047F2E720B300
:10563000B0FA80F3083B0AD4984001EB0302C2F1B0
:10564000950200EBC250FE2A38BF704711E003F10B
:10565000210310FA03FCC3F1210320FA03F0A3EBAA
:10566000010202F1950240EBC25007D0FE2A38BF7A
:105670007047ACBF4FF0FF400020704728BF20F0BC
:105680000100FE2A38BF7047F3E7002289B3B1FA60
:1056900081F3083B14D4994010FA03FCC3F12003B2
:1056A00020FA03F040EA0100A2EB0302C2F19502E6
:1056B0001CEB0C0C40EBC2501DD0FE2A14D27047DC
:1056C00003F1210311FA03FC5CEA000CC3F121038E
:1056D00021FA03F0A3EB020202F1B50240EBC25043
:1056E00009D0FE2A38BF7047ACBF4FF0FF40002002
:1056F000704711469BE728BF20F00100FE2A38BF03
:105700007047F1E751F48000704703D1B3F1FF4FC8
:105710003CD106E050F480007047FBD1B3F1FF4F5D
:1057200049D1013801391BE003F00043B2F5000F05
:1057300002D20BE002F0004243EC102A80EE201A65
:105740001EE003F00043B2F5000F04D241F07E5199
:1057500006E002F0004243EC102A80EE801A24E0BA
:1057600020F0004221F0004343EC102A9A4214D862
:1057700080EE201AB3F5000FD6D3B2F5000FD9D3BF
:10578000B3F1FF4FBED8B2F1FF4FBED200294CBFDC
:10579000DFF82CC14FF0000C11E080EE801AB3F559
:1057A000000FCED3B2F5000FD3D3B3F1FF4FA9D87A
:1057B000B2F1FF4FB1D2DFF804C191F0004142A233
:1057C000F0EE411AFFEECD1A11EE903A5B0853F15C
:1057D000000302EBC302D2ED012A22EE810A71EE30
:1057E000620AF7EE002A32EE800A32D080EE800A9A
:1057F0001268002948BF52426244002848BF524202
:10580000002A07D55242B2FA82F39A400BD0C3F570
:10581000C07305E0B2FA82F39A4004D0C3F180036A
:10582000120A42EBC35220EE001ADFED261A21EED7
:10583000001A90EA010F21EE211A02EE102A30EE32
:10584000410A54BF32EE000A32EE400A10EE100A4E
:10585000704780EE800A6246002848BF5242002A04
:1058600007D55242B2FA82F39A400BD0C3F5C07307
:1058700005E0B2FA82F39A4004D0C3F18003120A21
:1058800042EBC35220EE001ADFED0E1A21EE001A91
:1058900090EA010F21EE211A02EE102A30EE410AA1
:1058A00054BF32EE000A32EE400A10EE100A10F039
:1058B000FF4F18BF704700F000407047A9F6433211
:1058C00051ED8764ABAAAA3E000000000000000072
:1058D00023EEFF00BB01003DDC88FE012A997F3DDD
:1058E000700AFE020312C03D28D2FA036803003E8C
:1058F00070ABF504EAFD1F3EF856ED05DCDD3F3EDA
:10590000A0CFE4062514603EE0D3D8075D21803E99
:105910006004C608A500903E7067B2099214A03ECC
:10592000506D990A7713B03E106D7A0BA0F4BF3E0C
:10593000E03C590C9F01D03ED0EB330DBC1BE03E48
:10594000B07A080EBD1FF03E8061D50E98EFFF3E85
:1059500080DEA10FBF0E083F009D631031EC0F3FAA
:10596000E0902611FD0C183FC014E0116500203FA7
:10597000E0519612BE08283F00D446137D0A303FFE
:10598000C0C7EF132FEE373F60899814320C403FA9
:10599000C0A8371542EF473F60CCD41530F64F3FD3
:1059A00080F26E163415583FC075FF161EEF5F3F2C
:1059B000A01691174D18683FA05A1B182217703F68
:1059C0006005A1187110783F6040211951F47F3FA4
:1059D00010B5044636F094F828B10346034A234430
:1059E000934200D810BD0248FEF710F900000820CD
:1059F000784A041036F08CB8FFF7EABFFFF7E8BF2B
:105A0000FFF7F8BFFFF7F6BFFFF7F4BF9A4238BFC2
:105A100088547047704700BF2DE9F04F83B0994616
:105A2000DDE90DAB0F9B884611469A07074616D154
:105A3000DA453AD20C460D46ABEB0A060E44224636
:105A40004B46414620200134B847B442F7D129469D
:105A5000BAF1000F08D1204603B0BDE8F08F0C4624
:105A6000BAF1000F10D00E4655460C9B2E449A44B6
:105A70000191721B4B46013D41461AF8010D344617
:105A8000B847002DF5D101990F9B9B07E3D5651A07
:105A9000AB45E0D922464B46414620200135B84768
:105AA0005D4504F10104F5D3D5E7BAF1000FDAD171
:105AB0000C46D0E72DE9F04F0F9FDDF824E017F0FA
:105AC000020F0A9C9DF82C900E9DDDE90C8629D1D1
:105AD000002D6FD1B44225D2202C07F0010B00F02D
