:020000041000EA
:10000000002008205B0100101B0100101D010010E2
:100010001101001011010010110100101101001058
:100020001901001019010010190100101F01001022
:10003000110100101901001021010010230100100E
:100040001101001011010010110100101101001028
:100050001101001011010010110100101101001018
:100060001101001011010010110100101101001008
:1000700011010010110100101101001011010010F8
:1000800011010010110100101101001011010010E8
:1000900011010010110100101101001011010010D8
:1000A00011010010110100101101001011010010C8
:1000B00011010010110100101101001011010010B8
:1000C00011010010110100101101001011010010A8
:1000D0001101001011010010110100101101001098
:1000E0001101001011010010110100101101001088
:1000F0001101001011010010110100101101001078
:100100001101001011010010110100101101001067
:10011000EFF30580103800BE00BE00BE00BE00BE7A
:1001200000BE00BEF2EB887128BC041048BC04106D
:100130009C01001090A31AE7D3DEFFFF42012110BB
:10014000FF01000070EA0400793512AB00201E495F
:10015000086006C881F3088810474FF050400068D7
:1001600008B10020F3E70DA40ECC002902D000F066
:1001700012F8F9E71549164A002000E001C1914242
:10018000FCD114498847144988471449884700BE60
:10019000FDE701C901C29A42FBD3704748BC041075
:1001A0001001002070300020A8EB0410000008208F
:1001B00000000820A8EB0410001008200010082000
:1001C000000000007047000008ED00E070300020E3
:1001D000405300208159001031240010455900106F
:1001E00001207047012070470020704700207047B1
:1001F0000120704700207047002070474FF05042A8
:100200000123017952688B40134214BF0120002062
:10021000704700BF037941EC4030704730B404248C
:100220000F4A007913680F4D0F4983EA003303F436
:1002300070432B600C601368DB05FCD530BC536841
:10024000DFED0A6A9BB207EE903AF8EEE77A9FED8F
:10025000087A67EEA67AC7EE877A17EE900A70479B
:1002600000000A4000100A4000200A403333534087
:1002700000F07F4530B404240F4A007913680F4D15
:100280000F4983EA003303F470432B600C6013685A
:10029000DB05FCD530BC5368DFED0A6A9BB207EE84
:1002A000903AF8EEE77A9FED087A67EEA67AC7EE05
:1002B000877A17EE900A704700000A4000100A4043
:1002C00000200A403333534000F07F4530B404240B
:1002D0000F4A007913680F4D0F4983EA003303F486
:1002E00070432B600C601368DB05FCD530BC536891
:1002F000DFED0A6A9BB207EE903AF8EEE77A9FEDDF
:10030000087A67EEA67AC7EE877A17EE900A7047EA
:1003100000000A4000100A4000200A4033335340D6
:1003200000F07F4503F098B803F090B903F084B96A
:100330002DE9F04385B091461E460D46476890F87A
:100340000A80046903F088F84FF47A734FF0FF3C99
:100350006FF00042E4FB0301844572EB01033CBFF4
:10036000604611460024CDE902014B462A4641462B
:100370003846009407F0B6FF031EAABF01202046AE
:10038000336005B0BDE8F0832DE9F04385B09146B8
:100390001E460D46476890F80A80046903F05CF831
:1003A0004FF47A734FF0FF3C6FF00042E4FB03011F
:1003B000844572EB01033CBF604611460024CDE941
:1003C00002014B462A4641463846009407F0A8FFF2
:1003D000031EAABF01202046336005B0BDE8F083AC
:1003E00010B51F21044602F0FBF8002220461146FA
:1003F00002F014F92046BDE81040002102F022B9B5
:100400002DE9F0412DED028B90F8E830044682B0E2
:10041000062B2AD8DFE813F02E00C0002E00530070
:1004200080009400070040680222036869461D6846
:1004300001ABA84718B1019B022B00F0E680D4F86D
:10044000F830984D032B00F0D181DBB2013300224C
:100450002068C4F8F83003681B6884F8E820AB42D1
:1004600058D102F0F9FFC4E93C0102B0BDEC028BA7
:10047000BDE8F08100688B4D03681B68AB4240F01B
:10048000BA8002F0E9FFD4F8F0304FF47A72C01A63
:10049000D4F8F43061EB0301002342F0FDFD0A289B
:1004A000E3D9206894F8E8300268062B126800F05F
:1004B000B0810133AA4284F8E830D2D099E0012516
:1004C00040688DF8005003685B689847002800F08A
:1004D000948060682A46036869469D6801ABA84716
:1004E000002800F08A802068019B0268012B1268B6
:1004F00073D0D4F8F830032B00F08580DBB20133E1
:1005000000210268C4F8F8301368664A84F8E810DD
:100510009342A6D09847A6E740680222036869463E
:100520001D6801ABA847002867D0019B2068022BFB
:10053000DFD19DF900300268002B1268D9DA4CE057
:10054000002540688DF8005003685B6898470028D4
:1005500053D060686946026801AB96680122B047D3
:1005600000284AD02068019B0268012B1268C0D184
:1005700094F8E830062B35D10021D4F8F83084F80F
:10058000E810032B1CBFDBB25D1C464BC4F8F850CF
:100590009A423FF466AF2CE001218322D0F8F83074
:1005A00040681B0103F030033D3B8DF801308DF8AE
:1005B00000108DF8022003685B689847E8B1606816
:1005C0000322036869469D6801ABA847A8B120686B
:1005D000019B0268032B12688BD194F8E830062B3C
:1005E00000F006812F4901338A4284F8E8303FF455
:1005F00038AF904737E7984745E7D4F8F830206898
:10060000032B7FF47BAF00237AE7BDF800309FED2A
:10061000267ADBBA07EE903AF8EEE77AD4F8F830AB
:1006200027EE878A032B00F2C081DFE803F077AC66
:100630003F02D4F8C0001B4D03681B68AB4240F07A
:10064000A08102F009FF06460F4694F8D830002B2F
:1006500000F05F81D4F8C00003681B68AB4240F033
:100660009B8102F0F9FE02464FF47A704FF0000EC3
:10067000D4F8B030D4F8D4C003FB00F0D4F8D030B4
:10068000D21A61EB0C0190427EEB010E80F02181C9
:1006900094F8D830002B00F03C8184ED328AC4E914
:1006A0003467A0E0250300106F120339D4F88800E6
:1006B000BF4D03681B68AB4240F05B8102F0CCFE8B
:1006C00006460F4694F8A030002B00F04A81D4F87B
:1006D000880003681B68AB4240F0618102F0BCFEF9
:1006E00002464FF47A704FF0000EA36FD4F89CC00E
:1006F00003FB00F0D4F89830D21A61EB0C01904261
:100700007EEB010E80F00D8194F8A030002B00F0FC
:10071000288184ED248AC4E9266764E0A069A44D99
:1007200003681B68AB4240F0288102F095FE064644
:100730000F4694F83030002B00F0C380A0690368A6
:100740001B68AB4240F02E8102F086FE02464FF459
:100750007A704FF0000EA368D4F82CC003FB00F0B1
:10076000A36AD21A61EB0C0190427EEB010E80F07D
:10077000888094F83030002B00F0A38084ED088A44
:10078000C4E90A672FE0206D894D03681B68AB42FE
:1007900040F0FB8002F060FE06460F4694F8683099
:1007A000002B46D0206D03681B68AB4240F0F180FF
:1007B00002F052FE02464FF47A704FF0000E236CA6
:1007C000D4F864C003FB00F0236ED21A61EB0C0175
:1007D00090427EEB010E34D294F868304BB384ED36
:1007E000168AC4E91867D4F8F8302BE600232EE601
:1007F000D4F8F8300021032B0EBF0023DBB2013305
:10080000C4F8F8306A4B84F8E8109A423FF429AEF5
:10081000EFE6D4F8F830032B0EBF0023DBB2013330
:10082000C4F8F8300023AA4284F8E8303FF419AE47
:10083000DFE6012384ED168AC4E9186784F868307E
:10084000D1E794F86880B8F1000FF2D0F01A67EBA6
:100850000C0103F09EFCD4ED138A05EE900A9FED87
:10086000556AB7EE007AC5EE867A37EE687AD4ED2F
:100870001C6A67EE877AE8EEA67A4346C4ED1C7AD6
:10088000ACE794F83080B8F1000F1AD0F01A67EB9B
:100890000C0103F07EFCD4ED058A05EE900A9FED75
:1008A000456AB7EE007AC5EE867A37EE687AD4EDFF
:1008B0000E6A67EE877AE8EEA67A4346C4ED0E7AB2
:1008C00059E7012384ED088AC4E90A6784F83030C7
:1008D00089E794F8D880B8F1000F1AD0F01A67EBC6
:1008E0000C0103F056FCD4ED2F8A05EE900A9FED23
:1008F000316AB7EE007AC5EE867A37EE687AD4EDC3
:10090000386A67EE877AE8EEA67A4346C4ED387A0D
:10091000C0E6012384ED328AC4E9346784F8D83014
:1009200061E794F8A080B8F1000F1AD0F01A67EBD5
:100930000C0103F02EFCD4ED218A05EE900A9FED08
:100940001D6AB7EE007AC5EE867A37EE687AD4ED86
:100950002A6A67EE877AE8EEA67A4346C4ED2A7AD9
:10096000D4E6012384ED248AC4E9266784F8A03004
:1009700039E7984706460F46A4E6984706460F46CD
:10098000D7E6984706460F465FE6984706460F4665
:1009900004E7984702460EE79847024664E6984700
:1009A00002469EE698470246D1E6014D4DE500BF5E
:1009B00025030010002474492DE9F84F80468A462B
:1009C00005460E464FF0000C0F68D1F80C9000F56C
:1009D000CC5E00F5A964BAE80F00A8E80F00BAE8F9
:1009E0000F00A8E80F00BAE80F00A8E80F009AE887
:1009F00007000EF1180E88E80700D6F808A0C5F821
:100A000040C444F804CC04F582747445F9D1002143
:100A10009FEDD97B05F5805005F5CE5305F5E452E1
:100A2000C0F894C8C0F8ACC90833183203ED027B93
:100A300003F8101C18339342F8D1C0F8801C9FEDC6
:100A4000CE7B002105F5FB52103205F5E55303ED91
:100A5000027B03F8101C18339A42F8D100229FED54
:100A6000C67BC0F8581F05F5FB5305F5095118332F
:100A7000083103ED027B03F8102C18338B42F8D1B8
:100A800000F58050C0F83022002005F5005BCBF85F
:100A9000382605F56E52103205F51D5343F8040C47
:100AA00003F582739A42F9D100219FEDB37B05F5DE
:100AB000405405F57A52C4F88C0AC4F8A40B1032DD
:100AC00005F56F5303ED027B03F8101C18339A42AF
:100AD000F8D1C4F8781E9FEDA87B002105F57A5364
:100AE00005F582421833683203ED027B03F8101CCF
:100AF00018339A42F8D13B6805F580441B68C4F866
:100B000050110021A448DFF8A082C4E95A01012055
:100B100000214345C4E95C01C4F8607140F02781BD
:100B200002F09AFC2B46B646C4F88071C4E95E0117
:100B3000DFED9A7ACBF838A243F8409F4FF00009D6
:100B40009FED8D4B9FED8E5B9FED8F6B03F50753F4
:100B5000383305F5824204F5C47CC2E91633BEE899
:100B60000F00ACE80F00BEE80F00ACE80F00BEE8D5
:100B70000F00ACE80F009EE80700894F8CE80700E3
:100B80003369D6F800C004F5027A04F5E87B04F571
:100B9000107EC4E972C397E80F008BE80F00C4ED24
:100BA000807AC4F8E0C184F8F8918AE80F00C4EDB7
:100BB0008E7AC4F818C284F830928EE80F00C4ED23
:100BC0009C7AC4F850C2DCF8003084F86892D3F8FC
:100BD00000A097E80F00C24504F51E7787E80F00D4
:100BE00084EDAE4B84EDB45B84EDB66BC4EDAA7AB4
:100BF000C4F888C284F8A09284F8B092C4F8C09275
:100C0000C4F8C8C240F0B08002F026FC4FF0000BE0
:100C1000DFF898A1C4E9B8013068C4E9BCAB4FF073
:100C2000010A4FF0000B0368C4E9BEAB1B68C4F8AF
:100C3000E802434540F0968002F00EFC4FF0000BB6
:100C4000DFF86CA1C4E9C0013068C4E9C4AB4FF05F
:100C5000010A4FF0000B0368C4E9C6AB1B68C4F877
:100C6000080343457CD102F0F7FB9FED497BD6F8A2
:100C70003090D6F834A0C4E9C801306884EDCE7B4A
:100C80009FED417B036884EDD07B1B68C4F8300383
:100C9000434563D102F0E0FB44F25033C4E9D20192
:100CA00001210220D9F800203E4F126845F8039038
:100CB000BA422B44C3F804A0C4F8580384F85C1368
:100CC00040F0858099F8042041EC4020DAF80030AB
:100CD0001B68BB4272D19AF804304FF0000242EC1C
:100CE00040304FF0000BDFF8C8A03068D6E90A9614
:100CF000C4E9DAAB4FF0010A4FF0000B0368C4E916
:100D0000DCAB1B68C4F86003434525D102F0A4FBAB
:100D1000C4E9DE0101210220D9F800301A6805F586
:100D20008743BA42C3E90096C4F8880384F88C1359
:100D300048D199F8042041EC402033681B68BB423D
:100D400038D14FF00002337942EC4030052384F86B
:100D500090332846BDE8F88F9847D9E798479BE736
:100D6000984782E7984769E76046D0474EE738469C
:100D70009847D7E6AFF300800000000000000000B5
:100D8000A08601000000000001000000000000003B
:100D900090D0030000000000A086010000000000C9
:100DA000D02700201502001025030010E093040056
:100DB00090D00300002130469847C7E750460021F5
:100DC00098478EE748469047D4F88463B5E748468D
:100DD0009047D4F854A379E710B50446074B08466A
:100DE0002360217101F03EFC0022207942EC440096
:100DF000012101F013FC204610BD00BF2C4304105C
:100E00002DE9F04104460D4688B090464449012240
:100E100025F050FFD5E90012204625F04BFF0422B3
:100E2000404925F047FF02223F49204625F042FF76
:100E3000072500223D4B04AF93E80300ADF81410E2
:100E4000090CCDE903508DF816108DF817203449A0
:100E500001222046029725F02DFFDDE902122046EF
:100E600025F028FF04222F4925F024FFB8F80010B0
:100E7000204626F00DF9022220462D4925F01AFFC2
:100E80000298B84203D00499013103F0DBF913232F
:100E9000002201A902A80193029726F0D1FC054681
:100EA0004FF0000C019B234E029004930FCEEB6099
:100EB000338828602B82B3786960AB74AA60019B89
:100EC000029A0393164902F803C02046012225F036
:100ED000F1FEDDE90212204625F0ECFE0422114964
:100EE00025F0E8FE98F80210204626F0CDF8022200
:100EF00020460F4925F0DEFE0298B84203D004993F
:100F0000013103F09FF9022220460B4925F0D2FE61
:100F100002222046064908B0BDE8F04125F0CABECD
:100F2000D0310410D4310410DC310410E03104104D
:100F3000E8310410EC310410003204102DE9F041C6
:100F400004460D4688B090465B49012225F0B2FE6A
:100F5000D5E90012204625F0ADFE0422574925F0C0
:100F6000A9FE02225649204625F0A4FE05220025AE
:100F7000544B04AF93E80300CDE9027204900122C0
:100F80008DF8141020464C498DF8155025F092FE2E
:100F9000DDE90212204625F08DFE0422474925F0A6
:100FA00089FE98F80010204626F06EF802222046AE
:100FB000454925F07FFE0298B84203D004990131DB
:100FC00003F040F91223002201A902A8019302971D
:100FD00026F036FC05464FF0000C019B3B4E02907C
:100FE00004930FCEEB603388286069602B82AA607F
:100FF000019B029A0393304902F803C02046012264
:1010000025F058FEDDE90212204625F053FE0422A9
:101010002A4925F04FFED8F80410204626F038F86B
:1010200002222046284925F045FE0298B84203D006
:101030000499013103F006F9254B072593E80300D5
:101040000B0C8DF81630002301220490ADF814101B
:10105000204619498DF817300297039525F02AFE8E
:10106000DDE90212204625F025FE0422134925F071
:1010700021FED8F8080042F01BF802460B46204635
:1010800026F0ACF8022220460F4925F013FE029804
:10109000B84203D00499013103F0D4F8022220466B
:1010A0000C4925F007FE02222046074908B0BDE89A
:1010B000F04125F0FFBD00BFD0310410D431041041
:1010C000DC3104108C320410E831041004320410B6
:1010D0001832041000320410F0B505460C4687B0F3
:1010E00016464E49012225F0E5FDD4E900122846B6
:1010F00025F0E0FD04224A4925F0DCFD02224949A1
:10110000284625F0D7FD47F2673102220023284602
:10111000ADF80810019202AC324669468DF80A30EB
:101120000094FFF76DFE0098A04203D002990131B0
:1011300003F088F823464FF0090C00273A4A009440
:1011400007CA03C328461A706946321DCDF804C089
:101150008DF81170FFF754FE0098A04203D0029959
:10116000013103F06FF823464FF0090C00272F4A96
:10117000009407CA03C328461A70694606F108029C
:10118000CDF804C08DF81170FFF73AFE0098A04228
:1011900003D00299013103F055F823464FF0090CB2
:1011A0000027234A009407CA03C328461A706946D9
:1011B00006F10C02CDF804C08DF81170FFF720FE87
:1011C0000098A04203D00299013103F03BF8234676
:1011D0004FF0000C0927174A009407CA03C328469A
:1011E0001A70694606F1100201978DF811C0FFF7D9
:1011F00007FE0098A04203D00299013103F022F8C3
:10120000022228460C4925F055FD022228460B49AA
:1012100007B0BDE8F04025F04DBD00BFD03104104F
:10122000D4310410DC310410203204102C320410AC
:10123000383204104432041000320410E831041033
:101240002DE9F04104460D4688B090464B490122F5
:1012500025F030FDD5E90012204625F02BFD0422B3
:10126000474925F027FD02224649204625F022FD68
:10127000102300220DEB030701A902A80193029796
:1012800026F0DEFA05464FF0000C019B3E4E029020
:1012900004930FCE28606960AA60EB60019B029AFC
:1012A0002046039302A902F803C04246FFF746FE18
:1012B0000298B84203D00499013102F0C3FF14230D
:1012C000002201A902A80193029726F0B9FA054667
:1012D0004FF0000C019B2D4E029004930FCE28601E
:1012E000306869602861AA60EB60019B029A204621
:1012F000039302A902F803C008F10C02FFF71EFED7
:101300000298B84203D00499013102F09BFF1523E3
:10131000002201A902A80193029726F091FA05463E
:101320004FF0000C019B1A4E029004930FCE2860E0
:10133000EB60306833796960AA6028612B75019B86
:101340000298039302A900F803C008F1180220468E
:10135000FFF7F4FD0298B84203D00499013102F07E
:1013600071FF022220460B4925F0A4FC02222046F0
:10137000094908B0BDE8F04125F09CBCD03104100B
:10138000D4310410DC3104105032041064320410E3
:101390007C32041000320410E83104102DE9F04FC3
:1013A0002DED028BA3B000904068AE4A03681B6825
:1013B000934240F0D98502F03FF9009CDFF8B492E7
:1013C00004F58340483004F58044FFF719F8D4F859
:1013D000C80203681B684B4540F0C38502F03CF827
:1013E000D4F8D022D4F8DC32D4F8E4C202FB03F5FE
:1013F000D4E9B53603FB0655A6FB02673D44D4F895
:10140000E072F61945EB0C05B04271EB0505C0F032
:10141000B880C01B61EB0C0141F03EFE013041F190
:101420000001C4E9B601D4F8A8018F4D03681B6818
:10143000AB4240F074874FF050435B68D4F8AC0186
:1014400003681B68AB4240F06D874FF050435B6808
:10145000D4F8A40103681B689847D4F8A001036876
:101460001B689847D4F89C0103681B68984794F858
:10147000F851EDB1D4F8E00103681B684B4540F02A
:10148000648701F0E9FF02460B464FF47A700026AC
:10149000D4F8D01100FB01F1D4F8F001121AD4F8FD
:1014A000F40163EB0003914276EB030338BF35464A
:1014B00094F83032002B00F06384D4F818020368EB
:1014C0001B684B4540F03C8701F0C6FF03460A46C7
:1014D0004FF47A700026D4F8081200FB01F1D4F81A
:1014E00028021B1AD4F82C0262EB000299429641A2
:1014F000C0F0468494F86862002E00F04684D4F868
:10150000500203681B684B4540F0338701F0A4FF8D
:1015100002460B464FF47A700027D4F8401200FBC5
:1015200001F1D4F86002121AD4F8640263EB0003EC
:10153000914277EB0303C0F02884002D00F025844E
:10154000002E00F02284D4F85833012B19D0012248
:10155000D4F85003454D036894F85C131B68C4F835
:101560005823AB4240F05C87037941EC4030D4F81B
:10157000540303681B68AB4240F04F87037941EC8A
:101580004030D4F8E80203681B684B4540F0F38410
:1015900001F062FFD4F8F022D4F8FC32D4F804C38E
:1015A00002FB03F5D4E9BD3603FB0655A6FB026733
:1015B0003D44D4F80073F61945EB0C05B04271EBCD
:1015C0000505C0F05F82C01B61EB0C0141F064FDBA
:1015D0000130C4F8F802009841F1000100F5805292
:1015E000D2F8803CD4F880610492C4F8FC12002B3D
:1015F00000F0A286002300F5CD559B46B0469246EA
:1016000010350293039305941EE001F025FF184A5C
:10161000001B61EB070382424FF0000272EB0303F1
:1016200005F1180580F044840BF1010B3EB1DDE9B2
:1016300001371F443B1B0293039B01330393DAF8EA
:10164000803C9B4580F03484D8F800302C681968C1
:101650002B6949456F682E7A0193D6D0404688475A
:10166000D5E700BF2D030010FD010010150200108A
:101670003F0D0300250300104446DDE902ECBEF1F6
:10168000000F00F0EE856423D04AABEB0E08A2FBFE
:101690000C2603FB08F8B609B6FBFEF6B8FBFBF810
:1016A000B6B25FFA88F8009BC94A586803685B685D
:1016B000934240F03A8601F0C9FF05460A9BADF817
:1016C0005C60ADF850300B9B8DF85E808DF8523029
:1016D000069B1395ADF85430079B8DF85630089B48
:1016E000ADF85830099B8DF85A30049BADF8603046
:1016F000059B8DF8623094F8F831002B00F0AB8533
:10170000D4F8E00103681B684B4540F02D8601F0DA
:10171000A3FE03460A464FF47A760020D4F8D0118F
:10172000D4F8F47106FB01F1D4F8F0619B1B62EB75
:10173000070299429041C0F08E8594F8F831002B51
:1017400000F08985D4F8E00103681B684B4540F040
:10175000068601F081FE03460A46981B62EB0701EC
:1017600000234FF47A7241F097FCB7EE007AD4ED83
:10177000807AC7EE278AF4EE688AF1EE10FA0746FF
:1017800080F18A85D4ED757A94ED767A77EE876A62
:10179000F4EEE68AF1EE10FA00F37E8577EEC77A72
:1017A000F4EEE78AF1EE10FA4CBF0126002694F819
:1017B0003032002B00F04785D4F8180203681B680C
:1017C0004B4540F0C78501F047FE02460B464FF4FB
:1017D0007A7C0020D4F80812D4F828820CFB01F19E
:1017E000D4F82CA2B2EB080263EB0A03914270EB2F
:1017F0000303C0F0288594F83032002B00F02385D5
:10180000D4F8180203681B684B4540F0C18501F00D
:1018100023FE03460A46B3EB080062EB0A010023ED
:101820004FF47A7241F038FCB7EE007AD4ED8E7A3C
:1018300087EE278AB4EE488AF1EE10FA019080F123
:101840002785D4ED837A94ED847A77EE876AB4EEB7
:10185000E68AF1EE10FA00F31B8577EEC77AB4EE54
:10186000E78AF1EE10FA4CBF4FF001084FF0000884
:1018700094F86832002B00F0E084D4F8500203683A
:101880001B684B4540F07F8501F0E6FD02460B46A4
:101890004FF47A7C0020D4F84012D4F860A20CFBFC
:1018A00001F1D4F864B2B2EB0A0263EB0B0391428C
:1018B00070EB0303C0F0C18494F86832002B00F091
:1018C000BC84D4F8500203681B684B4540F0568531
:1018D00001F0C2FD03460A46B3EB0A0062EB0B01BE
:1018E00000234FF47A7241F0D7FBF7EE006A94EDD3
:1018F0009C7AC6EE877AF4EE677AF1EE10FA80F100
:10190000C48494ED917AD4ED926A37EE266AF4EEAF
:10191000C67AF1EE10FA00F3B88437EE667AF4EE88
:10192000C77AF1EE10FA4CBF01230023019A29492E
:101930008DF864601D920FAE022220902648CDEDF6
:10194000217A1A978DF87C30CDED1B8A8DED1E8A99
:101950008DF8708025F0AEF933464FF00A0C002761
:101960001E4A0D9607CA03C31D491A801A48012250
:10197000CDF838C08DF8467025F09CF9DDE90D12E0
:10198000154825F097F90422164925F093F92946C0
:10199000114825F07DFB022213490F4825F08AF9F2
:1019A0000D98B04203D00F99013102F04BFC112386
:1019B00000220CA90DA80C930D9625F041FF0546B9
:1019C0004FF0000C0C9B094F0D9011E0D34D6210AD
:1019D00029030010DC3104107449002094320410F3
:1019E000D0310410D4310410E8310410A0320410B6
:1019F0000F930FCFEB603B7828606960AA602B746F
:101A00000C9B0D9AB7480E930DA902F803C014AAB7
:101A1000FFF762FB0D98B04203D00F99013102F03D
:101A200011FC122300220CA90DA80C930D9625F091
:101A300007FF05464FF0000C0C9BAB4F0D900F932A
:101A40000FCFEB603B8828606960AA602B820C9BFB
:101A50000D9AA4480E930DA902F803C019AAFFF726
:101A6000EFFB0D98B04203D00F99013102F0EAFB71
:101A700002229E499B4825F01DF901229C49994864
:101A800025F018F9D4F8080303681B684B4540F0AB
:101A9000668201F0E1FCD4F81023D4F81C33D4F8AA
:101AA00024C302FB03F5D4E9C53603FB0655A6FBA8
:101AB00002673D44D4F82073F61945EB0C05B0429B
:101AC00071EB05051AD3C01B61EB0C0141F0E4FA80
:101AD000009B013041F10001C4E9C601986B94F804
:101AE00028130368834A1B6881F00101934284F83C
:101AF000281340F0D483037941EC4030D4F830030C
:101B000003681B684B4540F0328201F0A5FCD4F815
:101B10003823D4F84433D4F84CC302FB03F5D4E99A
:101B2000CF3603FB0655A6FB02673D44D4F8487345
:101B3000F61945EB0C05B04271EB050536D3C01B19
:101B400061EB0C0141F0A8FA013041F10003D4F837
:101B50005813C4F840030129C4F8443300F0268226
:101B6000022900F0C183D9B9D4F85003614D03684C
:101B70001B68AB4240F03F84037941EC4030D4F81D
:101B8000540303681B68AB4240F02F844FF00102FE
:101B9000037942EC403094F85C1303E0002198474D
:101BA00094F85C1381F0010184F85C13009BD4F875
:101BB000582140339A42D4F880B1009A00F0238132
:101BC00002F54051D1F8783E002B3AD0002302F5BF
:101BD0006E55DA4698468B46CDE901332835039495
:101BE0001CE001F039FC444A001B61EB0603824211
:101BF0004FF0000272EB030305F118051BD208F148
:101C000001083FB1029E009B1E44019B01330193DA
:101C1000331B0293DBF8783E98450CD2DAF800309B
:101C20002C6819682B6949456E682F7A0093D8D0C3
:101C300050468847D7E7039CDDE901C3BCF1000F9C
:101C400069D1D4F88833022B40F0C080D4F8600307
:101C500003681B684B4540F08C8101F0FDFBD4E923
:101C6000DE7CD4F86823D4F8743302FB03F5D4E99E
:101C7000DB3603FB0655A6FB026EF619754445EBF1
:101C80000C05B04271EB050540D3C01B61EB0C01A4
:101C900041F002FAD4F88823013041F10001012A11
:101CA000C4E9DC0100F06A81022A00F0FA823ABB42
:101CB000D4F880030F4D03681B68AB4240F0878364
:101CC000037942EC4030D4F8840303681B68AB42CC
:101CD00040F078834FF00102037942EC403094F8F1
:101CE0008C130FE074490020B43204100032041049
:101CF000C8320410150200103F0D03000021984760
:101D000094F88C1381F0010184F88C1323B0BDEC9E
:101D1000028BBDE8F08F6421B04AA2FB0323A8EB3D
:101D20000C0201FB02F29B09B3FBFCF3B2FBF8F2DD
:101D30009BB2D2B21E2AD4F8881382D8C82B80D87E
:101D40000A2A40F25681012980D00122D4F880036A
:101D5000A34D036894F88C131B68C4F88823AB4226
:101D600040F05583037941EC4030D4F88403036894
:101D70001B68AB4240F04383037941EC403065E798
:101D800094F86832002B40F0D482D4F85833002BFA
:101D90003FF4F7AB0021D4F85003914D03681B6862
:101DA000C4F85813AB4240F03083037941EC403023
:101DB000D4F8540303681B68AB4240F022834FF011
:101DC0000102037942EC4030FFF7DBBB0222D4F87A
:101DD0008003834D03681B68C4F88823AB4240F03E
:101DE000E3824FF00102037942EC4030D4F88403DF
:101DF00003681B68AB4240F0F1824FF000020379A8
:101E000042EC403022E702F58051D1F8583F002BD8
:101E10003FF417AF4FF0000802F5E457DA464546A5
:101E20008B46CDE902840837CDF804801BE001F031
:101E300013FB6C4B001B61EB080183424FF0000366
:101E400073EB010107F118071BD201353EB1DDE943
:101E500000361E44331B0193029B01330293DBF8CF
:101E6000583F9D420DD2DAF800303C6819683B6952
:101E70004945D7F804803E7A0093D8D05046884729
:101E8000D7E7039CDDE9018CBCF1000F3FF4D9AE2C
:101E90006421524BA3FB0823A5EB0C0201FB02F2C9
:101EA0009B09B3FBFCF3B2FBF5F29BB2D2B241E764
:101EB000059CDDE9023CD4F88061BCF1000F00F024
:101EC00093806421454AA2FB0323ABEB0C0201FB88
:101ED00002F29B09B3FBFCF3B2FBFBF29BB20A9349
:101EE000D3B20B930499D1F8583F002B00F05882DD
:101EF0000022009B924603F5E455B0468B46CDE99F
:101F00000222083505941DE001F0A6FA354A001BAF
:101F100061EB070382424FF0000272EB030305F10D
:101F2000180580F087800AF1010A3EB1DDE901372A
:101F30001F443B1B0293039B01330393DBF8583F81
:101F40009A4577D2D8F800302C6819682B69494532
:101F50006F682E7A0193D7D040468847D6E79847D6
:101F600099E59847FFF73CBA9847FFF726BA984794
:101F7000CDE5984773E69847FFF70CBBD4F880038C
:101F8000174D036894F88C131B68AB4240F0128223
:101F9000037941EC4030D4F8840303681B68AB42FA
:101FA0007FF4ADAE037941EC4030ABE6D4F850039A
:101FB0000B4D036894F85C131B68AB4240F0FE8144
:101FC000037941EC4030D4F8540303681B68AB42FA
:101FD0007FF4E5AD037941EC4030E3E5D34D621089
:101FE000150200103F0D03006423CDF828C00B93A9
:101FF00078E7642B3FF6A7AE00293FF427AE002117
:10200000D4F88003B44D03681B68C4F88813AB424E
:1020100040F00182037941EC4030D4F88403036836
:102020001B68AB4240F0EA814FF00102037942ECB9
:1020300040300BE6059CDDE9022CD4F88061BCF150
:10204000000F00F01D816421A44BA3FB0223AAEB27
:102050000C0201FB02F29B09B3FBFCF3B2FBFAF2A8
:102060009BB20893D3B20993009901F54050D0F880
:10207000783E002B00F0B581002201F56E559246A6
:10208000B0468346CDE90222283505941CE001F0D4
:10209000E3F9934A001B61EB070382424FF0000211
:1020A00072EB030305F118051BD20AF1010A3EB1D8
:1020B000039F019B1F443B1B0393029B013302932D
:1020C000DBF8783E9A450CD2D8F800302C681968B5
:1020D0002B6949456F682E7A0193D8D040468847CE
:1020E000D7E7059CDDE902C2D4F88061BCF1000F9E
:1020F00000F0C1806421794BA3FB0223AAEB0C0200
:1021000001FB02F29B09B3FBFCF3B2FBFAF29BB2B8
:102110000693D3B20793049B03F58057D7F8303268
:10212000002B00F057814FF0000E009BF246B346A3
:10213000B846CDE902EE03F5FB5504941CE001F02E
:102140008BF9674B001B61EB070183424FF00003E3
:1021500073EB010105F118051BD20AF1010A3EB12A
:10216000039E019B1E44331B0393029B0133029386
:10217000D8F830128A450CD2DBF800102B690968B8
:102180002C6849456F682E7A0193D8D05846884705
:10219000D7E7049CDDE902CED4F88061BCF1000FE2
:1021A00064D064224D4BA3FB0E13AAEB0C0101FB80
:1021B00002F29B09B3FBFCF3B2FBFAF29BB204936D
:1021C000D3B20593D4F85031002B4AD04FF0000C15
:1021D000009BE346B246A046CDE902CC03F57A5512
:1021E0001EE001F039F93E4BC01B61EB0601834252
:1021F0004FF0000373EB010105F11805BFF43CAA91
:102200000BF1010B3CB1039C019B1C44E31B0393AA
:10221000029B01330293D8F850118B45BFF42CAACE
:10222000DAF800102B6909682F6849456E682C7A26
:102230000193D6D050468847D5E7DFED2A7A0020B3
:102240000223FFF773BB00239FED268A4FF002089D
:102250000193FFF70DBBDFED238A00270226FFF76E
:10226000A6BA4FF064080026FFF71DBA6423CDF824
:1022700010C00593A6E76423CDF818C007934AE77A
:102280006423CDF820C00993EEE60123FFF74EBB8F
:102290004FF00108FFF7ECBA0126FFF788BA98471C
:1022A0002CE4D4F880030C4D03681B68AB4274D156
:1022B0004FF00102037942EC4030D4F88403036804
:1022C0001B68AB427FF41AAD4FF00002037942EC79
:1022D000403094F88C1315E515020010D34D6210B0
:1022E0003F0D030000000000D4F850034F4D036879
:1022F0001B68AB425BD103794FF0010242EC4030E6
:10230000D4F8540303681B68AB427FF447AC4FF02A
:102310000002037942EC403094F85C1342E49847A1
:10232000FFF78CB89847FFF793B898470546FFF733
:10233000C5B90026FFF7E3B80A9364230B93D1E5F0
:10234000984703460A46FFF7C3B8984702460B462C
:10235000FFF79BB8984702460B46FFF738BA9847F5
:1023600003460A46FFF7F9B9984703460A46FFF7BE
:10237000D2B9984702460B46FFF7CCB898470346B8
:102380000A46FFF7A9BA984702460B46FFF780BAFC
:10239000984703460A46FFF73EBA012198478CE763
:1023A0000893642309935FE6012198471EE5012104
:1023B0009847A5E7984794F88C13ECE5984794F86C
:1023C0005C1300E60121984794F88C139AE41146B7
:1023D000984778E4049364230593F3E60021984733
:1023E00034E406936423079395E60121984794F813
:1023F0005C13FFF7D7BB9847FFF7C1BB0121984794
:1024000024E401219847FFF7BCB89847D0E49847E7
:1024100094F88C13A9E49847FFE59847FFF7B1B803
:10242000984794F85C13FFF7A2B800BF150200109C
:1024300080B5ADF5884D94B05E4C03F0F1FB5E4A7B
:1024400001AB1C600121642002AB1A6001F006F9A7
:102450005A4A5B4D14685B4804AAC2E900545A49C1
:1024600003AA1060594B0DF58A62A2F57A741BAD70
:1024700021600FCB85E80F00114605F00DFF607A53
:10248000032100F0ADF8207A032100F0A9F8607A6A
:102490000022012100F0C2F80121207A002200F080
:1024A000BDF84B4B08AC069305F074FD1A20FDF700
:1024B00097FF0022474B8DF81C20236005F06AFD32
:1024C0001B20FDF78DFF0123434A06AD0A921D46EE
:1024D000237105F05FFD1C20FDF782FF022314AC81
:1024E000A4F120091D214846A4F118088DF82C30CC
:1024F000FEF772FC1E214046FEF76EFC1F200AAE5E
:10250000364E10AF3E60387100F0ACF83B7945ECC8
:102510004430202012AF3E60387100F0A3F83B79C0
:1025200045EC443021202660207100F09BF823798F
:1025300045EC4430222016AF3E60387100F092F82E
:102540003B7945EC4430192018AF3E60387100F0FB
:1025500089F83B7945EC44301FABA4F14C01A4F160
:102560004802C3E90012A4F14001A4F14402C3E906
:1025700002121AAAA4F110001A61A4F1380298629A
:102580005A6116A8A4F13002C3E90D079A611C63D1
:10259000A4F128021946083C2EA8DA61DC62C3F8CF
:1025A0002090C3F82480FEF707FA2EA8FEF7F6FE67
:1025B000FBE700BFE8420410F4420410604304103B
:1025C0000443041018430410D4420410E0270020F0
:1025D00044430410504304105C4304103843041077
:1025E00010B44FF480740C4B53F8202003EB80039D
:1025F000C00082F0400200F1804003F5805C02F0F0
:10260000C00200F5203003F54053CCF800204160B3
:102610001C605DF8044B70470480034010B4084C04
:10262000C90041EA820154F8202004EB80035140A4
:1026300003F5805301F00C015DF8044B19607047FD
:1026400004800340064B402203EB800319B103F5DD
:1026500000531A60704703F540531A60704700BF7B
:102660000480034030B44FF0000343EC440043ECDB
:10267000400005254FF480740B4BC20053F8201026
:1026800003EB800081F0400102F1804303F5203329
:1026900001F0C00200F5805100F540500A605D6015
:1026A000046030BC704700BF048003400FB400B525
:1026B00083B0049C074803F0F7FA3CB105A9204613
:1026C000019103F0D7F8044803F0EEFA012003F07B
:1026D000E9F800BFCC320410D831041070B586463A
:1026E000EFF3108572B6124CD4E8CF6F0120002EA4
:1026F000FAD1C4E8460F002EF6D1BFF35F8F4FF03A
:10270000010CC80801F007030CFA03F31EF800C01F
:102710001CEA030608D14CEA030C0EF800C0C4E81A
:102720008F6F85F3108870BD1046FFF7BFFF00BFA5
:102730002F4D0020F8B5EFF3108572B6234CD4E886
:10274000CF7F0126002FFAD1C4E8476F002FF6D1C2
:10275000BFF35F8F9A4227D80126D70810F807E009
:1027600002F0070C06FA0CFC1EEA0C0F00EBD20775
:102770000DD125E04FEAD20E10F80EE002F0070C62
:1027800006FA0CFC1EEA0C0F00EBD20718D001323F
:102790009342EFD24FF0FF300023C4E88F3F85F320
:1027A0001088984207DBF8BD0023C4E88F3F85F30B
:1027B00010884FF0FF300029F5D00698FFF776FF1C
:1027C0004EEA0C0E104687F800E0E5E72F4D00209A
:1027D000044A1078431CDBB2182B28BF1023137057
:1027E000704700BFF027002010B5054C82B00146AD
:1027F0001F23182200940348FFF79CFF02B010BD6E
:10280000DC320410744E00204FF0E022936843F055
:1028100000539360704700BF0021044B03F1200276
:10282000C3E88F1F01339342FAD17047244D002033
:102830004FF0E0234FF08032C3F80024C3F80424A3
:10284000C3F80824C3F80C24C3F81024C3F81424D4
:10285000C3F81824C3F81C24C3F82024C3F8242484
:10286000C3F82824C3F82C24C3F8302462B6704778
:10287000012300F01F029340400941B1800000F1A4
:10288000604000F56140C0F8803103607047024A43
:10289000203042F82030704700E100E00123064A72
:1028A000410952F8212000F01F008340134214BF59
:1028B00001200020704700BF00E100E00122430931
:1028C000034900F01F008240403341F82320704745
:1028D00000E100E0054A10309268054B52F82000F4
:1028E000C01A47288CBF00200120704700ED00E08F
:1028F000F427002010B5EFF3108C72B6114BD3E81B
:10290000CF4F0122002CFAD1C3E8442F002CF6D17E
:10291000BFF35F8F0C4A103092680C4C52F82020A5
:10292000A24201D091420BD1074A926842F820108E
:10293000BFF35F8F0022C3E88F2F8CF3108810BD88
:1029400000F092FF2D4D002000ED00E0110100107D
:102950002DE9F04F0B4683B0EFF3108A72B6DFF823
:10296000AC91D9E8CF4F0121002CFAD1C9E8441F1E
:10297000002CF6D1BFF35F8F5D4991F90080B8F16B
:10298000000FC0F2B2805B4C08EB480704EB8705F0
:10299000AE7910300E7058494FEA480689680096A3
:1029A00051F82010BF000E1B472E34D821F0010E25
:1029B0009EF80760964209D871E00CEB4C0604EBD8
:1029C000860696F807B093454ED9B6469EF906C0DE
:1029D000BCF1000FF1DA4BF601560EF1040B043D89
:1029E000A5EB0B05C5F34A056FEAC545009F6FEAE5
:1029F000D5454744BB468EF80680DFF80C8104EBD2
:102A00008707AEF8045044F82B80BE8087F806C0D4
:102A1000FA71BB601AE0394EB14266D1AB60384BF7
:102A2000EA71BA1C2244043B9B1AC3F34A036FEABF
:102A3000C3434FF421426FEAD343E2536B80FF223A
:102A40004BF60153AA71AB8045F001012A4B9B68FC
:102A500043F82010BFF35F8F0023C9E88F3F8AF34C
:102A6000108803B0BDE8F08FF3463BF8046F76059D
:102A70000FD4761502360BEB460601966FF007066B
:102A8000F61B019F361B3E44C6F34A0646F46046D9
:102A9000A5E706F5FF1606F5FF561F36E9E7AB601A
:102AA0006FF00703EA714FF42142DB1B1B1B7344D9
:102AB000E253C3F34A02124B124E02372744043B3F
:102AC0003243DB1BAA80C3F34A030F4A33436B80B4
:102AD0004AF6AA2173461B1B5B415943090DA97194
:102AE000CEF8002045F00101B0E700F0BDFE00BFC8
:102AF00038530020F427002000ED00E01101001001
:102B00003C28002000E0FFFF014880472D4D0020B9
:102B1000F0B5EFF30585EDB2EFF3108C72B62C49EA
:102B2000D1E8CF2F0123002AFAD1C1E8423F002A81
:102B3000F6D1BFF35F8F274E40F0010EB4684AF61E
:102B4000AA2354F82570244A0446A41A6441634316
:102B50001B0D77455BB223D092F906409C4224D0EE
:102B600092F912409C422BD092F91E409C4229D0EF
:102B700092F92A409C4227D092F936409C4225D0B7
:102B800092F942409C4208BF05240FD0134A00240A
:102B9000157813708571C1E88F4F8CF31088F0BDE4
:102BA000B2680F4C42F82540F0E7002404EB4404DF
:102BB00002EB8402FF2494714BF601549480E5E704
:102BC0000124F3E70224F1E70324EFE70424EDE70F
:102BD0002D4D002000ED00E0F427002038530020A8
:102BE0001101001010B5074C82B0014605230022E8
:102BF00000940548FFF79EFD0028A8BFC0F13300F0
:102C000002B010BDF83204103D530020014B0B44BC
:102C100003607047244D002070B5104C104DAC423D
:102C20000ED2FF26236863B1FFF7D2FD014620468E
:102C3000FFF7ECFFA680BFF35F8F0834AC42F1D3FF
:102C400070BDFFF7C5FD01462046FFF7DFFF267187
:102C5000BFF35F8F0834AC42E4D370BD683000200E
:102C60007030002010B50446FFF7B2FD0146204643
:102C7000FFF7CCFFFF232371BFF35F8F10BD00BFB1
:102C800010B504460120FFF7AFFD034B034423605A
:102C9000BFF35F8F10BD00BF244D0020024B0B44DB
:102CA0000360BFF35F8F7047244D002010490B680D
:102CB000EFF3108072B6D3E8CFCF0122BCF1000F42
:102CC000F9D1C3E84C2FBCF1000FF4D1BFF35F8FF3
:102CD000084A4FF0000C137809680133DBB2137017
:102CE000C1E88FCF80F3108840BF002000217047DB
:102CF000185300203A5300202DE9F04F2DED028BA0
:102D000085B0EFF30583DBB2103B9A0818BF0122B0
:102D10004FF0010103F0030018BFAF4DAF4B08BFE8
:102D2000AF4D00EB820253F8226001FA00FB05F57B
:102D300041539FEDA78B0190C3F804B02EE0B388F8
:102D4000180440F19280B379002B40F0DC80B6F992
:102D500008100029C0F21D81736901EB410103EBEA
:102D6000C103D3E90247B7F1FF3F08BFB4F1FF3F0A
:102D70000DD0019B05EB8301AB6A0A69D21AE31AF5
:102D8000934203D32B6A13EA0B0F00D10C61284640
:102D900000F05AFBA042B941C0F2FB80B6F90830FE
:102DA000C5F83CB0002B0093C9DBD6F8149003EBB8
:102DB000430A284609EBCA07D7E9024800F044FB5A
:102DC000A04271EB0801BADBB8F1000FC0F2C3807A
:102DD000D7E90431834A934200F0ED807A88B6F94E
:102DE000080092B242EA0040984702460B4652EA77
:102DF000030100F0B080002B80F2D180B4EB020E12
:102E000068EB030839F93A30C7E902E8002B96DB92
:102E1000716903EB430201EBC202D2E90270BE45C5
:102E200078EB000C4FEA430289DBB4462CF8083FEC
:102E30000BE031F93230A446002B0DDB03EB4300ED
:102E400001EBC0005A00D0E90270BE451A4478EB8D
:102E5000000001EBC204ECDA29F83A30009BACF830
:102E60000030B38818043FF56EAF3369EFF310827A
:102E700072B6D3E8CF0F01210028FAD1C3E8401F72
:102E80000028F6D1BFF35F8F4FF6FF74B0880023A0
:102E9000316900B2B480C1E88F3F82F31088984254
:102EA000FFF651AF0746A946746906F1080807EB1B
:102EB000470E04EBCE03D3E90250B6F90830C446FE
:102EC000002B13DBB246009704E034F93630944609
:102ED000002B09DB03EB430604EBC602D2E90271C7
:102EE000BD4270EB0101F0DA5646009FACF800706D
:102EF00034F93E7024F83E30002FD8DAB3794D46CD
:102F0000002B3FF424AF0023B371B6F9083006F16B
:102F10000808591C3DD01946776903E080465A1CC1
:102F20003FF417AF03EB430207EBC200B0F802C057
:102F30001C461CF4004F9E4637F93230EED08C42CE
:102F400080ED028B05D0A8F80030318927F83210C7
:102F500034817146E3E739F83A3033813369EFF36E
:102F6000108272B6D3E8CF0F01210028FAD1C3E84E
:102F7000401F0028F6D1BFF35F8F7388316929F8AD
:102F80003A30009B73800023C1E88F3F82F31088A2
:102F9000D5E640BF05B0BDEC028BBDE8F08F2846FA
:102FA000CDE9022300F050FA029A039B10EB020EC7
:102FB00043EB010826E708460B6902919847002871
:102FC000C9D00299D1E9002311E700BFAFF3008017
:102FD000FFFFFFFFFFFFFFFF00800B40F0520020CC
:102FE00000000B40F92C00102DE9F84F364C2569F4
:102FF0002DB1BDE8F84F0A213448FFF707BEDFF8CE
:10300000E4800321404600F00DFA0326C4F80C804A
:10301000FFF7DEFB4FF0504C2D4B2670034423612D
:10302000DCF800300F216370636961801D834FF00D
:103030000405A3F878504FF00505A3F890504FF021
:103040000605A3F8A8504FF007050E214FF6FF72B2
:1030500008274FF00A0EA3F8C0504FF001094FF0B7
:103060000C0C4FF0020B4FF0090A0D204FF00B052E
:10307000A3F868111749A280A3F808E1A160A3F89A
:1030800048B0A3F8F0A0A3F82051A3F838C1A3F8E2
:103090005001A3F83090A3F86060A3F8D8701A80AC
:1030A0000D4B3046C8F820700C49DC60FFF722FC5D
:1030B00049463046FFF7DCFB094B0A211F640348F1
:1030C000BDE8F84FFFF7A2BD60280020185300208C
:1030D000244D0020FFFF1000F0520020F92C0010BA
:1030E00000200B4000000B40004870476028002083
:1030F000F8B59DF82070044616461D4637B900F015
:10310000ABF9864265EB010100295CDB2369EFF333
:10311000108772B6D3E8CF1F01220029FAD1C3E885
:10312000412F0029F6D1BFF35F8FB4F902C0636964
:103130000CEB4C01BCF1000F4FEAC10203EBC101E3
:1031400038DB985A4FF0000E60802069C0E88FEF9E
:1031500087F310880698C1E90265086107984861FD
:1031600048880130C0F30E00012838BF0120488094
:1031700040EA0C402169EFF3108572B6D1E8CF7FA9
:103180000126002FFAD1C1E8476F002FF6D1BFF317
:103190005F8FA1889952A4F804C02369C3E88FEF18
:1031A00085F310880122E368217803F501538A40F2
:1031B0005A60F8BD00232269C2E88F3F87F3108868
:1031C0004FF0FF30F8BD3846F8BD00BF0146F0B5FE
:1031D0000069EFF3108772B6D0E8CF5F0124002DAD
:1031E000FAD1C0E8454F002DF6D1BFF35F8FB1F99A
:1031F00002E04C690EEB4E0CBEF1000F4FEACC051D
:1032000004EBCC0C3DDB605B002648800869C0E81D
:103210008F6F87F31088BCF80200CCE902230130DD
:10322000C0F30E00012838BF0120059BACF8020056
:10323000CCF81030069B40EA0E40CCF814300B69F5
:10324000EFF3108272B6D3E8CFCF0127BCF1000FA5
:10325000F9D1C3E84C7FBCF1000FF4D1BFF35F8F0D
:103260008B886353A1F804E00B69C3E88F6F82F386
:1032700010880122CB68097803F501538A405A600F
:10328000F0BD00230A69C2E88F3F87F310884FF032
:10329000FF30F0BD03464089B0EB214F37DD586960
:1032A0000A1402EB420210B500EBC2001C69EFF3F6
:1032B000108C72B6D4E8CFEF0122BEF1000FF9D125
:1032C000C4E84E2FBEF1000FF4D1BFF35F8F4288E8
:1032D00089B292B28A4207D000221B69C3E88F2FBD
:1032E0008CF31088002010BD42F40042428001217E
:1032F000002218699971C0E88F2F8CF310881C7810
:10330000DA68084602F50153A140596010BD00205B
:10331000704700BF407870472DE9F04705460C46DE
:1033200082B0EFF30587FFB2002F38D12B4ED6E9DC
:1033300000238B4208BF824239D0DFF8AC80D8F836
:103340000CA098F80090504600F07EF809F10409AE
:103350005AF829301B1A281A64EB0101984271F1BE
:10336000000124DA00F078F8854264EB01010029BD
:1033700015DB1B4B404600932A4623460197FFF777
:1033800025FF011E0BDD174BC6E900545A6AA24205
:1033900021D39B6AAB421CD31348FFF77BFF114B31
:1033A000586AA04208D2002002B0BDE8F08720BFD2
:1033B0000C4B586AA042F6D39B6AAB4203D3012060
:1033C00002B0BDE8F087001B18BF012002B0BDE8C5
:1033D000F087A242E0D120BFDEE700BF58280020DE
:1033E000AD2C001000000B4060280020084AD0E9F6
:1033F0000003516A8B4204D8926A824203D30120AF
:10340000704700207047581A18BF0120704700BF4E
:1034100000000B4001460248C1E90023704700BF8D
:10342000ED33001010B4054B054C064AA04214BF02
:103430001846581C5DF8044BFFF750B9784E002031
:1034400000800B40143304100346416A0A46986A10
:10345000596A8A42FAD17047034B596A0A46986AF8
:10346000596A9142FAD1704700000B4010B4174AD4
:10347000536A9C46946A536A6345FAD100195941CC
:103480004FF0000228BF01220346CAB10F4B596A10
:103490004B1C08BF0B4608D04FF0FF310B460B48C2
:1034A000426A8A42FCD38A4207D1084A02E0506A43
:1034B000884202D1906A9842F9D35DF8044B704774
:1034C000024A526A9142EAD8EDE700BF00000B4081
:1034D00000EB400C4FEA8C0C0CF1804C0CF5803C5E
:1034E000F0B51646DCF80420051FB2F5803F38BF62
:1034F0004FF48032EDB238BFCCF80420012D2AD928
:103500004FF40067254C0CF54052176054F820200A
:10351000B2B9DCF80020012D82EA461202F0E00286
:103520000CF5805632602AD94FF4006144F82030FF
:103530004FF480330CF500521160CCF80430F0BD2C
:103540006769B7FBF2FE0EF1010E0EEB4E0EBEF1F7
:10355000030EFCD2DDE70129D2D103240CF5405241
:103560001460DCF80820D207FBD5DCF800200B4CF7
:1035700082EA461202F0E0020CF580563260012227
:10358000DCF800504D4005F00305356002FA01F10A
:10359000DCF808200A42FBD0C6E700BF7C4E0020C2
:1035A000014B53F8200070477C4E002070B4039DFF
:1035B00004682D0345EA03451B4B002CB3FBF1F3D4
:1035C000B2FBF3F61FDB194A194B904214BF4FF4BC
:1035D00080424FF40042174C1A6003F580531A6082
:1035E000A36832EA0303FBD1212200F540530433E0
:1035F000016086601A600268002AFCDA0822C56051
:103600001A6070BC7047036803F03F038B42DAD145
:103610008368C3F30B03B342D5D1C36803F4EE232D
:10362000AB42D0D1EDE700BF001BB70000800540E2
:103630000020024000000240024A034B12685A6018
:10364000704700BFE052002000800D40024B186818
:1036500020F07F40704700BF00800D4030B44FF035
:103660008045174B174A184CDA61184A03F5405346
:103670001D6094604FF0E06249B1A3F580531A6079
:1036800040B930BC4FF00042114B1A6070471A60CD
:103690000028F6D04FF47A7303FB00F0B0F1807F7E
:1036A0002ABF6FF07F43034618464FF08042094C13
:1036B00003492360064B486030BC1A60704700BF66
:1036C00000800D402131B76AF3FFFF0100A00140E7
:1036D00000A00D40E052002030B44FF080441C4B5D
:1036E0001C60E0B11B4CA3F54053DC611A4C40F068
:1036F000010044401C62596298624FF080454FF0CF
:10370000E061134B1548164C1D60846019604AB97E
:1037100030BC4FF00042A3F580531A607047114B44
:10372000D861EAE74FF47A7303FB02F2B2F1807FCB
:103730002ABF6FF07F4313461A464FF080410A4C70
:1037400008482360094B426030BC1960704700BFD5
:1037500000B00D40D3C007B02D3FF84F00A001408E
:10376000F3FFFF0100800D40E052002000A00D405B
:10377000012300EB4000800000F1804000F5841040
:1037800041600360704700BF002370B5DB8A0446C8
:103790000D461646002242E800F2520254BF1021A4
:1037A000042144F252209847864633462A46204652
:1037B000F446BDE870400A21604700BF0023DB8A61
:1037C000002242E800F2520201D4102118470421DD
:1037D000184700BF08B51346021E02DB5BB141F07B
:1037E00030018B0603D50023DB7C022B06D04FF47F
:1037F0008170FFF7C9FF41F02001F2E74FF49170AB
:10380000FFF7C2FF034AD2F82838002BFBD0BFF3E2
:103810005F8F704700000E400021044B044ABFF345
:103820005F8F43F8041B9342F9D170470C080E4098
:103830002C080E4010B44FF48D704FF42A64064AE1
:10384000064B07491460D06019605368002BFCDAFE
:103850005DF8044B704700BF0080044000A00440A6
:1038600000B0FA00704700BF08B50148FEF71EFF20
:103870003833041038B5054C054DAC4204D254F829
:10388000043B9847AC42FAD338BD00BF68310410FE
:10389000A831041010B40748074C084B084A0949DE
:1038A00004601A608B6832EA0303FBD15DF8044BB5
:1038B000704700BF002002407F3BEFEF0030024026
:1038C000F6FFF30300000240044BDB6CB3F5004F3E
:1038D00003D14FF48022024BDA647047000011508C
:1038E000002011504FF0E022044BD2F8881D0B430A
:1038F000C2F8883D10EE3004704700BF030330006B
:103900006FF06041044B054A19609368DB4333F064
:103910006043FAD1704700BF00300240000002400F
:1039200010B545F25320FFF749FFBDE810400346AC
:103930000420184710B545F25320FFF73FFFBDE8BC
:103940001040034601201847FEF766BF38B51349FB
:10395000134C144D641AA408442C224628BF442258
:10396000284692003FF094FB432C14D80E4AC4F131
:1039700044000ED005EB8403410803EBC101C3E909
:10398000002208339942FAD1C30704D520F0010080
:10399000044445F82420054B9D6038BD000000100C
:1039A00010010010000000201101001000ED00E0E7
:1039B000002370B52B4C82B0C4F88430FFF73AFF77
:1039C0000122294BDA63636C012BFCD10321264AC7
:1039D000244B11639C6B012CFCD10226052521464A
:1039E0000523224A22480096FFF7E0FD21462B4698
:1039F000204A21480095FFF7D9FD002204203146D6
:103A00001E4BFFF765FD2146284600221C4BFFF7A1
:103A10005FFD0022082011461A4BFFF759FD0022D6
:103A200009201146174BFFF753FD002206201146CF
:103A3000134BFFF74DFD0022114B07201146FFF7F6
:103A400047FD0420FFF7ACFD00240F4BA3FB00351E
:103A5000AD0CE0B229460134FFF78AFE062CF8D1FE
:103A600002B070BD0000014000300140002F6859D5
:103A700000000540008C864700800540001BB70011
:103A800080D1F008006CDC0283DE1B4386B003B4F7
:103A900051FC0804CDE9020151FC0904CDE90401FF
:103AA00051EC0A04CDE9060103BCF047BDE8005023
:103AB0004EEC00C4BDE800504EEC01C4BDE800501F
:103AC0004EEC02C400BD000000B5FFF7DFFF02E0CE
:103AD00010FE30F4F8D441EC100443EC112400EE55
:103AE000010410EE010480EE200451EC1004704734
:103AF00000B5FFF7CBFF02E010FE30F4F8D441EC44
:103B0000100443EC112400EE010410EE210480EEB9
:103B1000200451EC3004704700B5FFF7B7FF02E016
:103B200010FE30F4F8D410B541EC100443EC11242D
:103B300051EC040453EC0524A0FB024C5FF0000E92
:103B4000E0FB03CEE1FB02CE4CEC20440024E1FB81
:103B500003E444EC30E480EE200451EC500410BD4A
:103B600000B5FFF793FF02E010FE30F4F8D441EC0B
:103B7000100443EC112451EC2104A0FB01126FEA64
:103B8000820252FB100052FB12F252FB1000A0EB1B
:103B9000D07C53EC04245CFB13F153EC1524A1FB03
:103BA000022001FB030053EC4424A2EB000050FB75
:103BB0001CF24FEA111312EB017043EBE27140EA81
:103BC000515020EA915020F0070053EC7524A0FBDF
:103BD000023C53EC752400FB03CC01FB02CC53ECFC
:103BE0000424ACEB824C40EA5C70A0F1010041EC93
:103BF000400480EE200451EC7004704700B5FFF7DC
:103C000045FF02E010FE30F4F8D441EC100480EEE1
:103C1000220410EEB204704700B5FFF737FF02E050
:103C200010FE30F4F8D440EC700400EE010410EE05
:103C3000210480EE200451EC3004704700B5FFF7FA
:103C400025FF02E010FE30F4F8D440EC600400EEF2
:103C5000010410EE210480EE200451EC3004704782
:103C600000B5FFF713FF02E010FE30F4F8D441EC8A
:103C7000800400EE010410EE010480EE400410EE1A
:103C80001304704700B5FFF701FF02E010FE30F4A7
:103C9000F8D441EC800400EE010410EE010480EE43
:103CA000400410EE3304704700B5FFF7EFFE02E06A
:103CB00010FE30F4F8D441EC100443EC112400EE73
:103CC000010410EE3004C0F30070704700B5FFF738
:103CD000DDFE02E010FE30F4F8D441EC100443ECB9
:103CE000112400EE010410EE3004C0F38070704720
:103CF00000B5FFF7CBFE02E010FE30F4F8D443EC41
:103D0000102441EC110400EE010410EE30F48CBFDD
:103D100001200020704700BF00B5FFF7B7FE02E0AA
:103D200010FE30F4F8D443EC102441EC110400EE02
:103D3000010410EE30F42CBF01200020704700BFBA
:103D400000B5FFF7A3FE02E010FE30F4F8D441EC1A
:103D5000100443EC112400EE010410EE30F42CBFEB
:103D600001200020704700BF00B5FFF78FFE02E082
:103D700010FE30F4F8D441EC100443EC112400EEB2
:103D8000010410EE30F48CBF01200020704700BF0A
:103D90000022002950DA404261EB4101C9B1B1FA79
:103DA00081F30B3B17D4D3F1200C30FA0CFC984074
:103DB000994051EA0C011A44524202F2324201EB9C
:103DC000025141F0004140F2FE739A4238BF704701
:103DD00021E011467EE003F1210310FA03FCA3F178
:103DE000010301FA03FCC3F1200320FA03F021FAD6
:103DF00003F140EA0C00A3EB020202F2324214D0BB
:103E000050F1000041EB025141F0004140F2FE73DD
:103E10009A4238BF70474FF00001A8BFC7F6F07153
:103E20004FF00000704700217047EBD350F10000C5
:103E300020F00100E6E70022B9B1B1FA81F30B3BB3
:103E400016D4D3F1200C30FA0CFC9840994051EA7A
:103E50000C011A44524202F2324201EB025140F28A
:103E6000FE739A4238BF704720E0114600F066B8F2
:103E700003F1210310FA03FCA3F1010301FA03FC8F
:103E8000C3F1200320FA03F021FA03F140EA0C0009
:103E9000A3EB020202F2324212D050F1000041EBD9
:103EA000025140F2FE739A4238BF70474FF0000152
:103EB000A8BFC7F6F0714FF00000704700217047AF
:103EC000EDD350F1000020F00100E8E7002880F277
:103ED00035804042B0FA80F30B3B11D4984001EB9F
:103EE0000302524202F2124200EB025141F0004141
:103EF0004FF0000040F2FE739A4238BF704713E063
:103F0000C3F1000330FA03FCC3F120029040A3EB9D
:103F1000010202F212420CEB025141F0004140F268
:103F2000FE739A4238BF70474FF00041A8BFCFF6EA
:103F3000F0714FF0000070470021704760B3B0FA95
:103F400080F30B3B0FD4984001EB0302524202F284
:103F5000124200EB02514FF0000040F2FE739A4211
:103F600038BF704710E05B4230FA03FCC3F1200217
:103F70009040A3EB010202F212420CEB025140F21C
:103F8000FE739A4238BF70474FF00001A8BFC7F6D2
:103F9000F0714FF000007047002170470022A2F23C
:103FA00032425FEA215CACF10103A1EB03515B05F6
:103FB00013F5800F32D212EB535210D40B2A36DA9B
:103FC0009140D2F1200330FA03F319439040BCF141
:103FD000000FA8BF7047404261EB4101704720329B
:103FE0000EDD01FA02F3D2F12002D140D040184395
:103FF000BCF1000FA8BF7047404261EB4101704720
:10400000524282F3050231FA02F00021BCF1000FA6
:10401000A8BF7047404261EB4101704702D00020C9
:104020000021704750EA013118BF4FF0000C6FF0CB
:10403000004101EBDC716FEAEC707047002200294F
:1040400080F2A880404261EB4101B1B3B1FA81F343
:10405000083B16D4994010FA03FCC3F1200320FA60
:1040600003F040EA0100A2EB0302C2F195021CEB4F
:104070000C0C40EBC25040F0004020D0FE2A16D27B
:10408000704703F1210311FA03FC5CEA000CC3F151
:10409000210321FA03F0A3EB020202F1B50240EB87
:1040A000C25040F000400AD0FE2A38BF70474FF09F
:1040B0000040A8BFCFF680707047114609E028BFC6
:1040C00020F00100FE2A38BF7047F0E7002832DAFE
:1040D0004042B0FA80F3083B0CD4984001EB030255
:1040E000C2F1950200EBC25040F00040FE2A38BFFA
:1040F000704713E003F1210310FA03FCC3F121031D
:1041000020FA03F0A3EB010202F1950240EBC2504A
:1041100040F0004008D0FE2A38BF70474FF0004002
:10412000A8BF40F0FF40704728BF20F00100FE2AE2
:1041300038BF7047F2E720B3B0FA80F3083B0AD4E7
:10414000984001EB0302C2F1950200EBC250FE2A37
:1041500038BF704711E003F1210310FA03FCC3F1EB
:10416000210320FA03F0A3EB010202F1950240EBD8
:10417000C25007D0FE2A38BF7047ACBF4FF0FF4097
:104180000020704728BF20F00100FE2A38BF70478A
:10419000F3E7002289B3B1FA81F3083B14D49940C4
:1041A00010FA03FCC3F1200320FA03F040EA0100F7
:1041B000A2EB0302C2F195021CEB0C0C40EBC250C7
:1041C0001DD0FE2A14D2704703F1210311FA03FC1B
:1041D0005CEA000CC3F1210321FA03F0A3EB020215
:1041E00002F1B50240EBC25009D0FE2A38BF704739
:1041F000ACBF4FF0FF400020704711469BE728BF3F
:1042000020F00100FE2A38BF7047F1E710B50446E0
:1042100036F0AEF828B10346034A2344934200D84F
:1042200010BD0248FEF742FA000008204433041093
:1042300036F0A6B8FFF7EABFFFF7E8BFFFF7F8BF11
:10424000FFF7F6BFFFF7F4BF9A4238BF88547047B4
:10425000704700BF2DE9F04F83B09946DDE90DAB03
:104260000F9B884611469A07074616D1DA453AD27F
:104270000C460D46ABEB0A060E4422464B46414621
:1042800020200134B847B442F7D12946BAF1000FD3
:1042900008D1204603B0BDE8F08F0C46BAF1000FFC
:1042A00010D00E4655460C9B2E449A440191721B29
:1042B0004B46013D41461AF8010D3446B847002DE2
:1042C000F5D101990F9B9B07E3D5651AAB45E0D962
:1042D00022464B46414620200135B8475D4504F152
:1042E0000104F5D3D5E7BAF1000FDAD10C46D0E7D7
:1042F0002DE9F04F0F9FDDF824E017F0020F0A9C24
:104300009DF82C900E9DDDE90C8629D1002D6FD1F2
:10431000B44225D2202C07F0010B00F0128104F1E9
:10432000FF3C4FF0300AF44401E0202C7AD00134F5
:10433000A6420CF801AFF8D8BBF1000F10D0AC4288
:104340000ED2202C74D004F1FF3C4FF0300AF4441C
:1043500001E0202C29D00134AC420CF801AFF8D197
:1043600017F0100F3AD017F4806F28D11CBBB8F1AA
:10437000100F00F0CA80B8F1020F00F0D480302492
:104380008EF800400124B9F1000F67D17E0740F19B
:10439000AA802B260EF804600134CDE90B57CDE935
:1043A00009E4BDE8F04FFFF755BFFC0640F18980F6
:1043B0007C0535D42024A6426AD0AC4268D0B8F13E
:1043C000100F00F08780B8F1020F5AD0202CE4D0F3
:1043D000264601344FF0300C0EF806C0202CD2D106
:1043E000CDE90B57CDE909E4BDE8F04FFFF732BF47
:1043F00017F0010B3ED0B9F1000F47D117F00C0FA9
:1044000044D1B4429BD2202C89D1202D10D8FC0657
:1044100057D57C0555D4202E00F0B980202D10D022
:104420002024CCE7BBF1000F00F0A580202DBCD9E3
:10443000FC0646D57C0544D4202E00F0A880202D13
:104440003FD12C461F26B8F1100F7FD0B8F1020FD4
:10445000C0D14FF0620C0EF806C0B7E72D260EF85B
:1044600004600134CDE90B57CDE909E4BDE8F04F14
:10447000FFF7F0BEB442BFF473AF202C7FF44FAF10
:10448000D6E7202C89D026460134E2E7013DB8E783
:10449000661ED8D1B8F1100F64D0B8F1020F7FF4C6
:1044A0006EAF62268EF80060302644468EF80160BA
:1044B000B9F1000F3FF46AAFD0E7B8F1100F7FF405
:1044C0006CAF2024CDE90B57CDE909E4BDE8F04FEE
:1044D000FFF7C0BEBE060ED4202CF2D078260EF810
:1044E0000460013472E73E077FF557AF20260EF8CF
:1044F0000460013451E7202CE3D04FF0580C0EEB50
:10450000040686F800C0013460E7BE0617D55824BB
:104510008EF8004030248EF801400224B9F1000FDB
:104520003FF434AF9AE762248EF8004030248EF8CE
:1045300001400224B9F1000F3FF428AF8EE7782440
:10454000F2E7BBF1000F7FF462AF71E717F0200FC5
:104550000CBF4FF0780C4FF0580CA61E0EF806C09A
:10456000013C35E7BC06EAD558248EF800403024DB
:104570008EF80140DDE717F0100F3FF40EAF17F48F
:10458000806F9AD1202E7FF418AF1F265BE7344648
:104590001F2658E700B9704701F044BB0000000037
:1045A0002DE9F04F9FB09DED287BDDE92AA558EC61
:1045B000177B83461E460D91109243463A46384675
:1045C00041468DED087B2C9CFFF772FB002840F0E4
:1045D000D880384641464FF0FF32754BFFF7C8FB95
:1045E000002840F0CE80384641464FF0FF326FF44D
:1045F0008013FFF781FB002840F0C380DDE90878D5
:104600000022384641460023FFF776FB002840F0A1
:10461000C081CDE90A78DDE90A2390461F4614F4EB
:10462000806308BF4FF0060A139304F4006258EA4F
:104630000703119240F0C080002A00F0A2819FED94
:104640005A7B00278DED0E7B4FF00009BA45CCBF99
:10465000AAEB070A4FF0000A4F46C8BF0AF1FF3A1B
:1046600044F480644D4594BF4FF00008A5EB090861
:1046700014F00203119304D0B9F1000F18BF4FF0EA
:1046800000083FB1DDE90A01DDE90E23FFF76CFA0E
:10469000CDE90A01DDE9080100220023FFF72CFB28
:1046A00030B1DDE90A01024601F10043CDE90A23F8
:1046B0009DED0A7BCDE902A8DDF834A024F4006367
:1046C00004938DED007B334651465846109A00F016
:1046D00097F98046B9F1000F4FD014F0200F024631
:1046E00000F1010433460CBF652045205146D847F0
:1046F00009F1FF3087EAE77C0DF1580900224B46AB
:10470000DFF8B080ACEBE77C4FEAD77E01E0202AEF
:1047100010D0E246A8FB0C71C90801EB8107ACEB95
:1047200047073037BAF1090F8C4602F1010203F84E
:10473000017BECD805230590069300200A230D9FEA
:10474000CDE90330CDE9012E33462246394658469D
:10475000CDF80090FFF7CCFD119B80466BB1109B0C
:10476000C41AA54209D942463346394620200134AD
:10477000D847A54208F10108F5D840461FB0BDE86A
:10478000F08F9DED087B33465846109A0D998DEDBC
:10479000287BCDE92B54CDF8A8A01FB0BDE8F04F81
:1047A00000F02EB9AFF30080000000000000000010
:1047B000FFFFEF7FCDCCCCCCC7F30A50A0F2FF3087
:1047C000FFF72EFA8AA3D3E90023FFF7A9F98AA3FA
:1047D000D3E90023FFF77CF9C7F31307CDE90E01F6
:1047E00047F07F51404600227B4B41F44011FFF7D8
:1047F00083F96BA3D3E90023FFF792F902460B4636
:10480000DDE90E01FFF764F9FFF72EFA0746FFF71F
:1048100007FA65A3D3E9002380468946FFF780F9AC
:1048200000226E4BFFF754F9FFF71EFA0346494684
:10483000404612935EA3D3E90023FFF771F9804647
:1048400012988946FFF7ECF95BA3D3E90023FFF741
:1048500067F902460B4640464946FFF74DF90246C6
:104860000B4680468946FFF75BF942464B46CDE949
:104870000E0140464946FFF72BF90022CDE914010D
:10488000DDE90E01564BFFF76FF90022554BFFF79C
:104890001FF902460B46DDE90E01FFF765F900221C
:1048A000514BFFF715F902460B46DDE90E01FFF704
:1048B0005BF942464B468046894600204FF08041D6
:1048C000FFF71AF902460B4640464946FFF700F942
:1048D00002460B46DDE91401FFF746F90022434B7F
:1048E000FFF7F6F8129B002203F2FF3C4FEA0C534D
:1048F000FFF716F980468946DDE90A0142464B4634
:10490000CDE90E89FFF7F8F968BB4346494607F140
:104910006302C62A119A8CBF4FF005094FF00409B3
:10492000002A3FF49FAE0B433FF48EAEDDE90A014F
:1049300023A3D3E90023FFF707FA48B1DDE90A0111
:1049400021A3D3E90023FFF7D7F900287FF47CAE39
:10495000BAF1000F3FF486AE139B002B3FF482AEFA
:104960000AF1FF3A7EE600221E4B40464946FFF719
:10497000FBF80A4601460346CDE90E12013F1146F7
:10498000C5E79FED137B17464FF004098DED0E7BB5
:1049900068E608F100430A970B933CE6AFF300800A
:1049A00061436F63A787D23F71A379094F930A4090
:1049B0001655B5BBB16B0240EF39FAFE422EE63F09
:1049C0002D431CEBE2361A3F0000000080842E418C
:1049D00000000000000000000000F83F0000E03F81
:1049E00000002C4000002440000018400000F03F70
:1049F000FB799F501344D33FB3C8608B288AC63FCE
:104A00002DE9F04F97B0DDE92089CDE90401DDE91A
:104A1000224BCDE90623404642464B464946DDF847
:104A200090A0FFF745F9002840F0C581404649466F
:104A30004FF0FF326FF48013FFF75EF9002840F06B
:104A40001D81404649464FF0FF32C14BFFF790F9B8
:104A5000002840F0E380B8A3D3E90023404649464C
:104A6000FFF786F9002840F0CB80B5A3D3E90023F7
:104A700040464946FFF740F9002840F0C1804046D3
:104A8000494600220023FFF737F9002840F0E08074
:104A90001AF480650D9000F0E980092C40F29681AF
:104AA0000EAB1A460C9330210023A4F10905013303
:104AB000202B02F8011BA4EB030600F03A81AB4265
:104AC000F5D19FED9D7B8DED087B49464046FFF774
:104AD000CBF80446FFF7A4F802460B464046494689
:104AE000FFF70AF8DDE90823FFF71AF802460B463C
:104AF000CDE90A23FFF7CAF80746FFF7A3F80246F5
:104B00000B46DDE90A01FEF7F7FF02460B46CDE949
:104B10000A2300228F4BFFF72BF9002800F0DB80DF
:104B200001373846FFF78EF8DDE90823FFF70CF967
:104B300008B100270134002E40F0B1802046FFF775
:104B40006FF802460B4640464946FEF7D5FF002265
:104B5000804B06460F46FFF7CFF840B9304639463E
:104B600000227C4BFFF704F9002800F015810C9B14
:104B7000691E7948194410E080FB0462C3EBA2036C
:104B800003EB8302A4EB420404F1300201351C461E
:104B900001F8012F002B00F0AB80202D4FEAE473C9
:104BA000EAD10AF00303012B1CD1BBF1000F19D08D
:104BB0000D9B002B40F0F9801AF00C0F40F0F580AF
:104BC000AB4540F2D380202D0BD030220C996B1EC8
:104BD0000B4401355D4503F8012F00F08D80202D39
:104BE000F7D12025DDE90623DDE904010C9CCDE9A0
:104BF00002BA01950094FFF72DFB17B0BDE8F08FC6
:104C0000CDE92089DDE90623DDE90401CDE923BAF8
:104C1000229417B0BDE8F04FFFF7C2BC4F4DCDF85E
:104C20008CA00AF0040ABAF1000F4D4C18BF2C46B4
:104C3000DDE90623DDE9040120940CBF03240424EC
:104C4000CDF888B0219417B0BDE8F04FFFF702BB54
:104C50004B46424600200021FEF74EFF01231AF486
:104C60008065804689460D937FF417AF9FED367BB4
:104C70000EAB06268DED087B0C9326E70424DDE9B8
:104C80000623DDE90401374DCDF88CA0CDF888B0BE
:104C90002095219417B0BDE8F04FFFF7DBBA0C9BCD
:104CA000681EDFF8C4C018440DE0ACFB0721C9083A
:104CB00001EB8102A7EB42023032092F00F8012FED
:104CC00027D90F461D46202D05F1010306F1FF36B9
:104CD000EBD120254BE70022DDE90A011D4BFFF750
:104CE0000BF800287FF427AF002F5AD1013722E7B5
:104CF0000AF00303012B75D0202D3FF473AF0D9BF9
:104D0000BBB32D2205F158036B4403F8202C013569
:104D100068E7202BDDD0AEB30C9A1E441544302238
:104D200001E0B3422ED00133202B05F8012FF8D13A
:104D3000CFE71D46C5E600BF0000000065CDCD41B0
:104D40000000000065CDCDC10000000080842E4130
:104D5000FFFFEF7F0000E03F676666669833041050
:104D6000A0330410A8330410CDCCCCCC202D3FF4BC
:104D700039AF1AF0040F0DD11AF0080F3FF432AF1B
:104D80002022BFE72E2103F158026A4402F8201CBA
:104D90005D1CECE62B22B5E7E3077FF5E8AE0134B6
:104DA000E5E6FA077FF5C7AEA0E70BF1FF3BAB45A1
:104DB0003FF609AFA0E70324DDE90623DDE904019E
:104DC0000A4DCDF88CA0CDF888B061E7084B264697
:104DD00003EBC40393ED007B0EAB8DED087B002548
:104DE0000C9372E6BBF1000F86D0E1E6A433041009
:104DF000C84304102DE9F04F9A469BB0249C964D71
:104E00000B94964C0B1E18BF834625609AF8000041
:104E1000934C0A9308BFA3460992002800F0BC8275
:104E20004FF000090AE04A46099B0A9909F1010975
:104E3000D8479AF80000002800F0CE8025280AF113
:104E4000010AF0D10023524612F8010BA0F1200113
:104E500010290AD8DFE801F04009093C09090909CD
:104E600009090938093409093000A0F1300109297C
:104E700040F28C802A2800F0F58000210C912E2829
:104E800000F099800027A0F1680112292DD8DFE8F1
:104E900011F057012C0051012C0045012C002C0071
:104EA0002C002C002C002C002C0027002C002C00A7
:104EB0002C002C002C002700924643F00103C2E78F
:104EC000924643F00203BEE7924643F00403BAE77A
:104ED000924643F01003B6E7924643F00803B2E768
:104EE0009AF8010043F4807301326728924600F279
:104EF0008280242840F2C680A0F12502422A00F2D6
:104F0000C180DFE812F05F01BF00BF00BF00BF003B
:104F1000BF00BF00BF00BF00BF00BF00BF00BF0099
:104F2000BF00BF00BF00BF00BF00BF00BF00BF0089
:104F3000BF00BF00BF00BF00BF00BF00BF00BF0079
:104F4000BF00BF00BF00260145012601BF00BF0012
:104F5000BF00BF00BF00BF00BF00BF00BF00BF0059
:104F6000BF00BF00BF00BF00BF00BF00D301BF0034
:104F7000BF00BF00BF00BF00BF00BF00BF00BF0039
:104F8000D3016701D301260145012601002100E07C
:104F9000013201EB810100EB410110789246A0F152
:104FA0003004092CA1F13001F2D92E280C9102F124
:104FB00001027FF467AF9AF801001146A0F13006B4
:104FC000092E43F4806340F231812A2800F03E81AB
:104FD00092460027013256E74C46099B994501D37A
:104FE00003F1FF394A460020099B0A99D847204619
:104FF0001BB0BDE8F08FA0F16902D2B20F2A41D8F0
:10500000012649F2410196400E4040F001810A2AF2
:105010003FD0072A36D10B9C54F8042B002A00F00D
:10502000288143F021010DF1480E704603E0202E47
:1050300000F029811A4602F00F052B46092D94BF76
:10504000303337330F2A00F8013B06F101064FEAEF
:105050001213ECD817E100BFF54D0010DC52002010
:10506000514200100B9C9AF8010054F8045B9246E0
:10507000002DBDBF694243F002030C910C950B94C7
:105080000132FCE64A46099B0A9909F10109D84711
:10509000CFE60B9951F8048B98F800201046002FAA
:1050A00040F0E18072B16FF0010C0CF1010C46464A
:1050B000C44401E0664503D016F8014F002CF9D135
:1050C000A6EB080613F4806C02D0BE4228BF3E4611
:1050D00013F0020400F08781002A00F02B81BCF15C
:1050E000000F00F041810B940D964A46DDE909540A
:1050F0000E464F4408E02B462146D84718F8010FCA
:1051000009F1010910B14A464F45F4D131460B9CD3
:105110000D9E002C40F00E810B918AE69AF801005A
:105120006C287FF4DFAE9AF8020043F440730AF172
:105130000302DAE69AF8010043F400730132D4E680
:105140009AF80100682800F0208143F080030132C2
:10515000CBE6672800F0E780472800F0008145286B
:1051600000F0FF800B9C04930C9B0734CDE9027385
:1051700024F007031C46DDE90931F4E802674A46DA
:105180005846CDE900670B94FFF70AFA814650E6CE
:1051900046280B9C08BF43F0200304930C9B073464
:1051A000CDE9027324F007031C46DDE90931F4E878
:1051B00002674A465846CDE900670B94FFF720FC8A
:1051C000814636E64A462520099B0A9909F10109DC
:1051D000D8472EE60B9A9C0702F1040709F1010655
:1051E00040F1E6801078099B4A460A99D8470C9B03
:1051F000012B40F22C81DDE90954994432462B46BB
:10520000214620200136D8474E45F7D10B9710E6AE
:105210006F2800F08B8040F26581782800F00881CB
:105220004FF00A0823F01003C44647E0002707EBBD
:10523000870700EB4700A0F1300711F8010FA0F13C
:105240003002092AF3D98A464A1C1CE60B9C9AF8BC
:10525000020054F8047B0AF1020A0AF101020B94DD
:1052600027EAE7770FE6002A3FF42CAF07F1FF3C6F
:105270001BE723F0100113F4806241F021013FF499
:10528000D2AE0DF1480E08231020059300234A46A4
:10529000CDE9023006915846DDE90931CDE900E655
:1052A0000497FFF725F80B948146C2E5582879D07A
:1052B000622840F051824FF00208C44613F4806027
:1052C0006DD123F00C0313F4007240F0C2800B99EF
:1052D00004310D9113F4807140F02E825E060B9A1A
:1052E00040F1AA801278002A40F0DA8023F01003FF
:1052F000002800F0D58011460DF1480E06930C9B56
:10530000CDF80CC0CDE90473019100234A46029305
:105310005846DDE90931CDF800E0FEF7E9FF0D9BC5
:1053200081460B9385E543F400631BE74FF00808C3
:10533000C446C3E70C9B4C46B3427FF6EDAE0F4626
:105340004B44A3EB0609DDE90965224633462946AD
:1053500020200134D8474C45F7D13946DCE643F4E8
:10536000006343F02003FDE60F460B94DDE909548A
:105370004A462B462146D84718F8010F09F1010982
:105380000028F5D139460B9CC3E69AF8020043F099
:10539000C0030AF10302A8E5044681461DE623F096
:1053A0000D0390E74FF0100843F02003C44685E753
:1053B0000C9B012B45D9DDE909544E4609F1FF3814
:1053C000984432462B46214620200136D847464590
:1053D000F7D10C9B324699440B9B1878DDE90931D3
:1053E000D8470B9725E50C9BB34240F2EE81CDE9FF
:1053F0000D48DDE9095488464B449E1BCDF82CC06E
:105400004A462B462146202009F10109D847B145DB
:10541000F6D14146DDF838800C9BDDF82CC00D9CA0
:1054200098F800205E1C1046002A7FF458AE73E600
:105430004FF01008C44641E71D064CBF12881268A1
:1054400051E713464A461878DDE90931D847B14695
:10545000DCE60B9C073424F007042246656852F80A
:10546000084B0B9254EA050240F02C8123F0100304
:10547000002800F0278100260DF1480E06930C9BB2
:105480004A46CDE904730023CDE900E6CDF80CC00F
:1054900002935846DDE90931FEF72AFF8146C8E448
:1054A00013F0200F14BF412061200DF1480E764605
:1054B000A0F10A0803E020293FF420AF2246B2FB06
:1054C000FCF40CFB1425E8B2092D00F130058ABF6D
:1054D0004044E8B2C0B2624506F8010B01F1010197
:1054E000E9D20BE723F0100269280D9240F06F819A
:1054F00013F4806204D04FF4806223F011030D9303
:105500000D9B13F4007640D10B9B03F104080D9B17
:1055100013F4807040F09880590640F1C6800B9BD0
:1055200019780C46CB0F002900F0B98022460DF106
:10553000480E74461646DFF8A0C201E020280FD0BE
:105540003546ACFB0621C90801EB8102A6EB4202FD
:105550003032092D0E4600F1010004F8012BEDD880
:105560000D9ACDE9010306920C9ACDE904720A2343
:105570004A4603935846DDE90931CDF800E0FEF7CD
:10558000B7FECDF82C80814653E40B9C073424F001
:10559000070421460846636850F8081BDC0F0B908F
:1055A00051EA030000F0C3800A46191E48DB134687
:1055B0000DF1480EF4460026CDE90E94DFF818826E
:1055C00001E0202E2DD05A1842F10002A8FB02590A
:1055D00029F0030505EB9905521B1C469B1A61F146
:1055E000000508464FF0CC3101FB03F108FB051123
:1055F000A3FB08531944052305F00109A9FB03394E
:105600009B180A2C03F130034FEA550570F1000096
:105610000CF8013B06F1010645EAC1734FEA51015E
:10562000CFD2DDE90E940D9B4A4606930C9BCDE943
:105630000164CDE904730A23CDF800E0039328E761
:10564000524261EB4101B2E70B9B1968CB0F002975
:1056500000F0AB8081EAE172A2EBE1720DF1480E3D
:105660007046DFF874C101E0202E10D01546ACFB67
:105670000241C90801EB8104A2EB440404F13002A9
:10568000092D00F8012B06F101060A46ECD80D9A07
:10569000CDE9016306920C9ACDE9047267E7002A0E
:1056A0003FF445AF0DF1480E5AE713F0800F0B9B06
:1056B00000F08180B3F9001081EAE174A4EBE17499
:1056C000A4B22FE713F0200F14BF412261220DF185
:1056D000480E0A3ACDE90D97CDF844B0002677463A
:1056E000F3469146CDE90F3C03E0202E17D0044647
:1056F0000D4629464246002320463DF0CDFCD2B25D
:10570000092A02F1300388BF02EB09034445DBB2EA
:1057100075F1000507F8013B06F10106E5D2DE460A
:10572000DDE90D97DDE90F3CDDF844B0A6E6002A7F
:1057300047D1134611463BE70B990968A1B923F0FD
:10574000100388B10DF1480E06930C9BCDF80CC0E8
:10575000CDE904730192D8E513F480627FF4CBAEF7
:1057600023F010030D93CBE613F0200F14BF41205C
:1057700061200DF1480E7646A0F10A0802E0202AC9
:10578000E2D02146B1FBFCF40CFB1415E8B2092D64
:1057900000F130058ABF4044E8B2C0B2614506F866
:1057A000010B02F10102EAD2CEE7002A3FF456AF24
:1057B0000DF1480E6BE7196881EAE174A4EBE1741E
:1057C000B0E600260DF1480E2DE701362BE64FF02E
:1057D0000A081346C44671E5CDCCCCCC0EB410B546
:1057E00085B007AC54F8043B01464FF0FF320094FB
:1057F00004480394FFF7FEFA05B0BDE8104003B07B
:10580000704700BF4942001030B594468E460546A9
:105810001C4683B029467246634600940248FFF74F
:10582000E9FA03B030BD00BF494200100FB410B513
:105830000E4B84B006A91C6851F8043B03915CB17F
:1058400000914FF0FF3202A90948A047012004B09F
:10585000BDE8104004B07047184600F025FA204615
:1058600004B0BDE8104004B0704700BFDC52002017
:105870009545001010B5094B84B01C684CB1034627
:1058800000914FF0FF3203A90548A047012004B062
:1058900010BD00F009FA204604B010BDDC52002013
:1058A0009545001000BEFDE7704700BF074A03465C
:1058B000106838B1064903448B428CBF4FF0FF306B
:1058C00013607047034908461160F3E7D84E002083
:1058D0000000082040530020002070474FF0FF30A8
:1058E000704700BF03460846114623B9034BD3E96E
:1058F000002300F03FB94FF0FF30704768430410B9
:10590000431E012B09D810B5144608460123002276
:10591000214600F0B7F8204610BD4FF0FF30704729
:105920004FF0FF30704700BF4FF0FF30704700BFAF
:105930004FF0FF30704700BF02288CBF00200120CD
:10594000704700BF08B5FFF7ADFF00BF9C46144687
:1059500000B50B460246614683B044B1054D06488A
:1059600001940095FFF762FF0120FFF79BFF034DB5
:105970002C46F4E7B0330410C0330410D8310410BF
:1059800038B5064C064DFDF775FFAC4204D254F80D
:10599000043B9847AC42FAD338BD00BFA83104108D
:1059A000D03104100268012A07D008B5930706D445
:1059B0000346022201201A6008BD002070470148FA
:1059C000FCF774FEF033041001230360704700BF3E
:1059D0000368084611461847437D2DE9F047814684
:1059E0000F461646002B43D0002A3BDD037D0020E6
:1059F0004D1E014615F8012FDFF884800A2A01F1B7
:105A000001040ED0A6421CD02B782146A3F10D0331
:105A1000B3FA83F315F8012F5B090A2A01F1010497
:105A2000F0D1002BEED18142A1EB000138441BDC08
:105A300002214046D9F800309847A64208D02046B7
:105A4000E2E7864204DD311AD9F80030384498473D
:105A5000374417F8013CA3F10D03B3FA83F35B0954
:105A600089F81430BDE8F087D9F800309847DFE7AF
:105A70003846D9F800301146BDE8F047184700BF56
:105A8000184404102DE9F04782B00D46924699461D
:105A90000746FDF7E1FC4FF0FF366FF000442F4A58
:105AA000821841F10003964274EB03013CBF324679
:105AB00023462B483DF00CFB6B1C804603D1384637
:105AC00036F038FE0546274B274E1C68274BB9F1A8
:105AD000000F18BF1E46B4B1BAF1000F1AD1DFF89B
